:100000000C944C040C9432160C940B160C9476043D
:100010000C9476040C9476040C9476040C94760478
:100020000C9476040C9476040C9476040C94760468
:100030000C9476040C9476040C9476040C94760458
:100040000C940A1D0C9476040C947F160C9459168B
:100050000C9476040C9476040C9476040C94760438
:100060000C9476040C947604524F4D204261640047
:100070005265616420524F4D004754494D4500522E
:10008000544320496E697400474D5347003D424F29
:100090004F543D0042616420436D64004E6F6465BF
:1000A00020697320756E6B6E6F776E0042616420FD
:1000B0004E6F64652049642028322D3235332C2060
:1000C00032353420666F7220616C6C290044554DC6
:1000D000504E00456E74727920416C676E3D00424F
:1000E000616420454E544100454E5441003D004C52
:1000F000617374205353492040204E6F6465200083
:100100002066726F6D206E6F646520004C617374A1
:1001100020535349204020477761793D00545820AF
:10012000506F773D0042616420545820506F7765CE
:1001300072005458505700477761792049643D0058
:1001400042616420477761792049640047574944F8
:10015000004E65742049643D00426164204164643E
:1001600072004E455449004B65793D004261642060
:100170004B657900454B4559004C6F674C65763DA2
:1001800000426164204C6F674C65760044454255DF
:100190004700494E464F005741524E004552524F7C
:1001A00052004C4F474C00202F200054696D653D94
:1001B000004261642054696D650054494D45005208
:1001C00043464700467265652052414D202842292A
:1001D0003D00426F6F7465643D0044554D504700CB
:1001E00048454C50002057680042616420536572B6
:1001F00069616C204D6573736167653A2000730017
:100200007320666F7220002C20002E204E6F6465D4
:100210003D004261642047494E522066617374205C
:10022000706F6C6C2073767220696E737400534724
:100230004954525F4E41434B005365742047494E29
:1002400052206661737420706F6C6C20737672201C
:10025000696E73740053474954525F41434B0053D6
:1002600047495452002C204E65772076616C7565A5
:10027000202873293D002E204E6F64653D004261A9
:1002800064206D6574657220696E74657276616C48
:100290002073767220696E737400534D494E545F1B
:1002A0004E41434B00536574206D6574657220693F
:1002B0006E74657276616C206F6E20737672206941
:1002C0006E737400534D494E545F41434B00534D80
:1002D000494E54002C2074696D6520286D73293DAA
:1002E000002C206D657465722070756C73652070CC
:1002F000657220666C6173683D002E204E6F6465E8
:100300003D0042616420736574206D6574657220E0
:100310004C45442073767220696E73740053504CC0
:1003200045445F4E41434B00536574206D657465D1
:1003300072204C4544206F6E2073767220696E7374
:10034000740053504C45445F41434B0053504C455F
:1003500044002C204E65772076616C75653D002E3B
:10036000204E6F64653D0042616420736574206DAA
:100370006574657220696E737400534D56414C5F0D
:100380004E41434B00536574206D65746572206F58
:100390006E2073767220696E737400534D56414C13
:1003A0005F41434B00534D56414C00474E4F534E17
:1003B00041505F4E41434B004E4F534E415000471A
:1003C0004E4F534E4150004757534E415000474700
:1003D00057534E415000426164205354494D4520CB
:1003E00066726F6D20736572766572005354494D65
:1003F000455F4E41434B005365742074696D652021
:100400006F6E2073767220696E73743D0053544989
:100410004D455F41434B005354494D45004E4441C7
:10042000524B00473E533A003A2061727261792084
:1004300066756C6C0043616E277420616464206E85
:100440006F646520004D524542003A2000556E6BA6
:100450006E6F776E206D73672066726F6D206E6FA2
:10046000646520003A2000476F74206263617374F2
:100470002066726F6D206E6F64652000505253507D
:1004800000505245510053656E74206E6F2D6F7091
:1004900020284D4E4F492920746F206E6F646520CF
:1004A000004D4E4F490053656E74206D6574657242
:1004B0002075706461746520696E737420284D50D6
:1004C0004C492920746F206E6F646520004D504C9C
:1004D000490053656E74206D6574657220696E7491
:1004E0002075706461746520696E737420284D49AD
:1004F0004E492920746F206E6F646520004D494E6F
:10050000490053656E74206D657465722076616C68
:100510002075706461746520696E737420284D566F
:1005200041492920746F206E6F646520004D56414B
:10053000490053656E742047494E5220706F6C6CB1
:10054000207261746520696E63726561736520282D
:10055000474954522920746F206E6F64652000470C
:10056000495452004C6173742052535349206174B2
:10057000206E6F64653D0047494E52004D55505FF7
:10058000004D555043004D524542002E20525353CA
:1005900049203D2000476F74206D73673A2000208A
:1005A000554E0020504F002045580020424F00205B
:1005B000574400525F464C4720307800003E800090
:1005C00052F4F4D0003415004FF4F4D0001A0B00AC
:1005D0009DF4F4D0000D05013BF4F4D00006830235
:1005E00075F3F3D000034104EAF2F2D000022C07C5
:1005F000AEE2E2D00001000800E1E1D0000080108E
:1006000000E0E0D000024003334242D0013E8000CF
:1006100052F4F5D0013415004FF4F4D0011A0B0058
:100620009DF4F4D0010D05013BF4F4D001068302E2
:1006300075F3F3D001034104EAF2F2D001022C0772
:10064000AEE2E2D00101000800E1E1D0010080103B
:1006500000E0E0D001024003334242D0087D0000B8
:10066000108888D008682B0010F1F1D008341500EC
:1006700010F5F5D0081A0B0010F4F4D0080D0500A1
:1006800010F3F3D00806830010F2F2D00803E8005C
:1006900010E2E2D03000203E20002E002E002E007E
:1006A0002000E001DA01CD00BF01BA01A20174010E
:1006B00062014C013201E800436D64733A20003D51
:1006C000003A003A0020002D002D0054696D653D70
:1006D000005570647420524F4D004D73674D677222
:1006E000206661696C00526164696F20496E6974AB
:1006F000006C6173745F727373693D00705F6C6549
:10070000645F74696D653D00705F6C65645F726104
:1007100074653D006C6173745F637572725F7661BE
:100720006C3D006C6173745F6D74725F76616C3DDB
:10073000006C6173745F6D657465725F656E747271
:10074000795F66696E6973683D006D74725F696D8B
:10075000705F7065725F6B77683D006D74725F6982
:100760006E74657276616C3D006C6173745F636C6E
:100770006F636B5F64726966743D007768656E5F76
:100780006C6173745F7365656E3D00667265655F6D
:1007900072616D3D00736C6565705F74696D653D78
:1007A0000075705F74696D653D00626174745F7699
:1007B0003D006E6F64655F69643D004D55505F009C
:1007C0004D55504300474D53472C424F4F5400471F
:1007D0004D53470000000000250028002B000404B2
:1007E00004040404040402020202020203030303D9
:1007F00003030102040810204080010204081020B5
:10080000010204081020000000080002010000039B
:100810000407000000000000000053656E642066BD
:1008200061696C3A200053656E64696E673A200016
:100830004D736720746F6F206C6F6E673A200053A2
:100840003E473A0000000000240027002A006364AD
:10085000696E6F70737578585B004E414E494E4912
:100860005459494E46CDCCCC3D0AD7233C17B7D17D
:100870003877CC2B329595E6241FB14F0A00002023
:10088000410000C84200401C4620BCBE4CCA1B0EA2
:100890005AAEC59D7400A0282092540711241FBE93
:1008A000CFEFD8E0DEBFCDBF12E0A0E0B1E0EEEDCB
:1008B000FCE602C005900D92A639B107D9F727E0F2
:1008C000A6E9B2E001C01D92A435B207E1F714E039
:1008D000CCE4D4E004C02197FE010E94D429CB349B
:1008E000D107C9F70E94541D0C946D360C9400007A
:1008F0009FB7F8948091FE02882319F0815080936D
:10090000FE028091FE02811105C08CB58F7B8CBDEB
:100910001092FD029FBF08958CB58F778CBD08950E
:100920008CB580688CBD08956EBD00000DB407FEC7
:10093000FDCF8EB508959CB5282F23709C7F922BF8
:100940009CBD2DB582FB992790F9822F8E7F892B34
:100950008DBD089580E00895FC0181850895FC0116
:1009600080850895FC0187810895FC0186810895A2
:10097000FC01409595854923642B65870895FC010A
:1009800064870895FC0163870895FC0162870895D8
:10099000FC0164830895FC016583089580E0089557
:1009A000FC012281338123303105D1F381E00895A8
:1009B000CF93DF93EC01E881F9810280F381E02D90
:1009C000CE0109958823B9F3DF91CF91089581E095
:1009D0000895EF92FF920F931F93CF93DF93CDB7BC
:1009E000DEB72A970FB6F894DEBF0FBECDBF8C01DD
:1009F0000E94B315E82E811102C0E12CA2C0F801BB
:100A0000838D823029F08330C1F7FF24F39401C035
:100A1000F12C60E1C8010E945017F801868F9FEF0A
:100A2000980F9E3F50F760E0F801838D0E94881C6C
:100A3000F801848D8F3F49F48091FF028430E8F6FD
:100A400091E0980F9093FF02848FF801948DE92F25
:100A5000F0E0EE0FFF1FE75CFC4F11830083911164
:100A600003C06AE879E109C0913019F461E879E1DD
:100A700004C0923011F668E779E18F2D0E94FD1BCA
:100A8000C8010E94F1174FE86CE3C8010E94FF16ED
:100A900040E36FE6C8010E94FF1645E56AE5C8011C
:100AA0000E94FF1640E76CE5C8010E94FF168DE228
:100AB000898784ED8A876EE2C8010E945017F82E5C
:100AC00022E0AE01475F5F4F6FE2C8010E94B1169E
:100AD0004F2D477C48686EE2C8010E94FF1648E02F
:100AE00050E06CE476E0CE0101960E947D31BE01BB
:100AF0006F5F7F4FC8010E94D41740E06CE2C801CD
:100B00000E94FF1644E06DE2C8010E94FF164CE609
:100B100067E0C8010E94FF1640E868E0C8010E9433
:100B2000FF1640E069E0C8010E94FF16C8010E945C
:100B3000C6178DE0F801878F4FE961E1C8010E9477
:100B4000FF168E2D2A960FB6F894DEBF0FBECDBFCE
:100B5000DF91CF911F910F91FF90EF900895CF9368
:100B6000DF93FC01268137812115310549F02130C1
:100B7000310541F02230310539F02330310531F0B3
:100B800020E005C024E003C028E001C02CE09CB5B3
:100B9000937F922B9CBD84819581019709F04AC077
:100BA0008CB580628CBD82819381019784309105E0
:100BB00028F4FC01EE5EFE4FC08101C0C1E08C2F25
:100BC0000E949B04DFB7F8948091FE02811127C038
:100BD000E8EEF7E09491ECEFF7E02491E92FF0E0F4
:100BE000EE0FFF1FEC5BF74FA591B491EC91E22360
:100BF00021F461E08AE00E94171C61E08AE00E9413
:100C0000881C8CB580618CBD8CB580648CBD61E026
:100C10008DE00E94881C61E08BE00E94881C80911E
:100C2000FE028F5F8093FE02DFBF8C2FDF91CF919A
:100C30000C949B049CB59F7D9CBDB5CF8F929F92D9
:100C4000AF92BF92CF92DF92EF92FF92CF93DF935A
:100C5000EC016B010E94FE1C4B015C01E12CF12CAC
:100C60000E94FE1CDC01CB0188199909AA09BB0965
:100C70008C159D05AE05BF0530F48A819B810397D5
:100C800079F381E001C080E0DF91CF91FF90EF9098
:100C9000DF90CF90BF90AF909F908F9008958F92EC
:100CA0009F92AF92BF92CF92DF92EF92FF92CF933B
:100CB000DF93EC016B010E94FE1C4B015C01E12CF7
:100CC000F12C0E94FE1CDC01CB0188199909AA09AC
:100CD000BB098C159D05AE05BF0550F4E881F9816F
:100CE0000280F381E02DCE010995882351F301C0E4
:100CF00080E0DF91CF91FF90EF90DF90CF90BF9099
:100D0000AF909F908F9008958F929F92AF92BF92D5
:100D1000CF92DF92EF92FF92CF93DF93FC0126896F
:100D20003789232B11F481E038C0EC010E94FE1CAE
:100D30006B017C0189E0882E912CA12CB12CE881DB
:100D4000F9810488F589E02DCE010995882359F3AE
:100D50000E94FE1CAB01BC014C195D096E097F09A4
:100D60008E899F89A0E0B0E084179507A607B70792
:100D700098F00E94E62DA50194010E94F5359B0193
:100D8000AC012F5F3F4F4F4F5F4FA4E6B0E00E9492
:100D900014360E94C41CD3CF80E0DF91CF91FF9026
:100DA000EF90DF90CF90BF90AF909F908F9008957D
:100DB000CF93DF93EB010E94AD358883CE01DF91A5
:100DC000CF910895EF92FF920F931F93CF93DF93EC
:100DD0001F92CDB7DEB78C017B01FB016081698377
:100DE0000E94AD356981681719F0C8010E94B535B8
:100DF000C7010F90DF91CF911F910F91FF90EF905E
:100E00000895CF92DF92EF92FF921F93CF93DF93DB
:100E1000CDB7DEB7A1970FB6F894DEBF0FBECDBF3A
:100E2000182F60E070E083EB95E00E94880DC12EE2
:100E3000D12CE12CF12C19A2CE018196B701A6018B
:100E40004F7055276627772724E0F694E794D794C8
:100E5000C7942A95D1F701974A305105610571056C
:100E600010F4405D01C0495CFC014083C114D10411
:100E7000E104F10419F70E94C11913FF07C060E0F3
:100E800070E08FEA95E00E94880D177F12FF07C07F
:100E900060E070E08BEA95E00E94880D1B7F11FFF7
:100EA00007C060E070E087EA95E00E94880D1D7F32
:100EB00010FF07C060E070E083EA95E00E94880DB3
:100EC0001E7F112331F060E070E08FE995E00E9411
:100ED000880D80E090E00E94850FA1960FB6F894EF
:100EE000DEBF0FBECDBFDF91CF911F91FF90EF907E
:100EF000DF90CF900895CF93DF93D82FC1E0DC1718
:100F000088F05C9A64EF71E080E090E00E94C41C7D
:100F10005C986AEF70E080E090E00E94C41CA895A5
:100F2000CF5FEDCFDF91CF9108950F931F93CF93B4
:100F3000DF93A8958091E7068093980264E070E0C3
:100F400085E995E00E94880D64E070E080E493E01C
:100F50000E94A90D64E070E08BE895E00E94880D86
:100F60008091980264E070E0082E000C990B0E94BA
:100F7000321466EA71E08CE793E00E941E2A60E476
:100F800073E08CE793E00E941E2AC0913F038C2FF0
:100F90000E94DD0C8093D9028F3F59F5E9ECF4E013
:100FA00020E030E0808181110AC084E3829FF0015B
:100FB000839FF00D1124E753FB4FC0831CC02F5FAC
:100FC0003F4FF4962530310569F761E070E085E325
:100FD00094E00E94880D6C2F70E080E090E041E08A
:100FE00050E00E94C40D61E070E088E294E00E944D
:100FF000E6122091D9022093FC022F3F09F4D8C4B5
:10100000C22FD0E00E94EB0C14E31C9FF0011D9F47
:10101000F00D1124E753FB4F658776878787908B08
:101020008091980283AB66E875E08CE793E00E94BC
:10103000260D813009F043C0E091FC021E9FF001B3
:101040001124CF018B519B4F9F938F93E152FB4F04
:10105000FF93EF9389ED91E09F938F938CE793E05B
:101060009F938F930E946F2AC0913F03A89583E2BC
:1010700094E00E945A0D85E494E00E945A0D8BE39F
:1010800090E00E94D3196C2F70E080E090E040E087
:1010900050E00E94C40D8CE290E00E94D31960E001
:1010A00070E08CE793E00E9441142DB73EB7285FB3
:1010B0003F4F0FB6F8943EBF0FBE2DBF6FC461E81F
:1010C00075E08CE793E00E94260D813009F0DEC0C8
:1010D00080EF93E09F938F9386EE91E09F938F93A1
:1010E0008CE793E09F938F930E946F2A62EF71E0E9
:1010F00080EF93E00E94B9319093FB028093FA0253
:101100001092F9021092F5021092F6021092F70274
:101110001092F8020F900F900F900F900F900F9079
:10112000C3E0E091FA02F091FB02309709F480C02D
:101130002091F9022F5F2093F902213081F440E0E1
:1011400050E060E070E0CF010E9462306093F102F5
:101150007093F2028093F3029093F4025EC0223007
:1011600081F440E050E060E070E0CF010E94623026
:101170006093F5027093F6028093F7029093F80261
:101180004CC0822F6C2F0E94A02991110EC060E0EC
:1011900070E0CF010E94F42D6093ED027093EE0297
:1011A0008093EF029093F00238C040E050E060E09E
:1011B00070E0CF0120FD19C00E9462300091F5025D
:1011C0001091F6022091F7023091F802DC01CB0178
:1011D000800F911FA21FB31F8093F5029093F60218
:1011E000A093F702B093F80218C00E9462300091F9
:1011F000F1021091F2022091F3023091F402DC012D
:10120000CB01800F911FA21FB31F8093F102909317
:10121000F202A093F302B093F40262EF71E080E077
:1012200090E00E94B9319093FB028093FA0279CF4B
:10123000E091FC0234E3E39FF0011124E753FB4FFC
:101240008091F1029091F202A091F302B091F40228
:10125000868B978BA08FB18F8091F5029091F602CB
:10126000A091F702B091F802848F958FA68FB78F67
:101270008091ED029091EE02A091EF02B091F00208
:1012800080A391A3A2A3B3A361E0BAC06CE775E009
:101290008CE793E00E94260D813009F0B6C080EF04
:1012A00093E09F938F9385EF91E09F938F938CE7CB
:1012B00093E09F938F930E946F2A62EF71E080EF1B
:1012C00093E00E94B9319093EC028093EB0210926C
:1012D000EA021092E6021092E7021092E8021092DF
:1012E000E9020F900F900F900F900F900F90809148
:1012F000EB029091EC02009709F461C02091EA02A0
:101300002F5F2093EA0240E050E060E070E021307F
:1013100059F40E9462306093E2027093E30280937A
:10132000E4029093E50240C0223059F40E946230FA
:101330006093E6027093E7028093E8029093E902DB
:1013400033C020FD19C00E9462300091E602109166
:10135000E7022091E8023091E902DC01CB01800F25
:10136000911FA21FB31F8093E6029093E702A09300
:10137000E802B093E90218C00E9462300091E202D4
:101380001091E3022091E4023091E502DC01CB01EF
:10139000800F911FA21FB31F8093E2029093E3027C
:1013A000A093E402B093E50262EF71E080E090E088
:1013B0000E94B9319093EC028093EB0298CFE091B8
:1013C000FC0284E3E89FF0011124E753FB4F809176
:1013D000E2029091E302A091E402B091E502868BD3
:1013E000978BA08FB18F8091E6029091E702A09138
:1013F000E802B091E902848F958FA68FB78F60E0E5
:1014000080913F030E946514C9C267E775E08CE7CD
:1014100093E00E94260D813009F0F9C18091FC0211
:10142000189FC00111249C012D513B4F3F932F93D6
:101430009C0122523B4F3F932F939C0122513B4FE3
:101440003F932F939C0123513B4F3F932F9327E9C9
:1014500032E03F932F939C012C523B4F3F932F93AD
:101460009C0120533B4F3F932F939C0124533B4FB0
:101470003F932F9386539B4F9F938F9381E092E0EE
:101480009F938F93CCE7D3E0DF93CF930E946F2A93
:1014900063E070E084E695E00E94880D80919702F9
:1014A00063E070E0082E000C990B0E9432148091CA
:1014B000FC0290E0189FF001199FF00D1124E753F2
:1014C000FB4F2DB73EB72A5E3F4F0FB6F8943EBF95
:1014D0000FBE2DBF27A530A9232B09F453C021A986
:1014E00032A9232B09F44EC08FE595E09F938F938B
:1014F000DF93CF930E94E531E091FC028091980246
:10150000282F082E000C330B3F938F931E9FF00162
:101510001124E753FB4F82A98F9381A98F9380A950
:101520008F9387A58F93DF93CF9389E292E09F9368
:101530008F93DF93CF930E944C2A63E070E082E3A5
:1015400095E00E94880D80913F0363E070E090E099
:101550000E943214E091FC021E9FF0011124E75317
:10156000FB4F10AA17A612AA11AA80913F030E944E
:10157000C41A8DB79EB740960FB6F8949EBF0FBEA3
:101580008DBF0CC2C4E3C89FF001C99FF00D1124A8
:10159000E753FB4F80A591A5A2A5B3A5892B8A2B64
:1015A0008B2B09F458C08DE295E09F938F930CE745
:1015B00013E01F930F930E94E53180919802282F2A
:1015C000082E000C330B3F938F93E091FC02CE9FCB
:1015D000F0011124E753FB4FDF01989613968C918D
:1015E00013978F9312968C9112978F9311968C91DB
:1015F0008F9380A58F931F930F9387E392E09F9320
:101600008F931F930F930E944C2A63E070E082E057
:1016100095E00E94880D80913F0363E070E090E0C8
:101620000E943214E091FC02CE9FF0011124E75396
:10163000FB4F10A611A612A613A680913F030E948D
:10164000C41A2DB73EB7205F3F4F0FB6F8943EBF88
:101650000FBE2DBFA3C187A1882309F448C08DEF19
:1016600094E09F938F930CE713E01F930F930E94D6
:10167000E53180919802282F082E000C330B3F9300
:101680008F93E091FC02CE9FF0011124E753FB4FB2
:1016900087A11F928F931F930F9383E492E09F93F0
:1016A0008F931F930F930E944C2A63E070E082EDAA
:1016B00094E00E94880D80913F0363E070E090E029
:1016C0000E943214E091FC02CE9FF0011124E753F6
:1016D000FB4F17A280913F030E94C41A8DB79EB79B
:1016E0000E960FB6F8949EBF0FBE8DBF57C185A54D
:1016F00096A5019609F454C084A58F3F09F450C003
:101700008DEC94E09F938F930CE713E01F930F935E
:101710000E94E531E091FC0280919802282F082E6A
:10172000000C330B3F938F93CE9FF0011124E753AE
:10173000FB4F86A58F9385A58F9384A51F928F93CA
:101740001F930F9389E292E09F938F931F930F93C0
:101750000E944C2A63E070E086EA94E00E94880DC3
:1017600080913F0363E070E090E00E943214E091CA
:10177000FC02CE9FF0011124E753FB4F8FEF9FEF48
:1017800096A785A784A780913F030E94C41A8DB7AE
:101790009EB740960FB6F8949EBF0FBE8DBFFEC099
:1017A00081EA94E09F938F93CCE7D3E0DF93CF93CC
:1017B0000E94E53180919802282F082E000C330BEF
:1017C0003F938F93DF93CF938EE492E09F938F9319
:1017D000DF93CF930E944C2A63E070E086E894E0A8
:1017E0000E94880D80913F0363E070E090E00E94CA
:1017F000321480913F030E94C41A2DB73EB7245F74
:101800003F4F0FB6F8943EBF0FBE2DBFC7C061E873
:1018100074E08CE793E00E94260D813009F07BC0D4
:101820000E94EB0C6093DE027093DF028093E00273
:101830009093E1028AED92E09F938F9386E592E088
:101840009F938F93CCE7D3E0DF93CF930E946F2ACF
:101850008CE794E09F938F93DF93CF930E94E531C1
:1018600080919802282F082E000C330B3F938F9302
:10187000809196021F928F938091E1028F938091C5
:10188000E0028F938091DF028F938091DE028F932D
:101890008091DD028F938091DC028F938091DB0237
:1018A0008F938091DA028F93DF93CF938FE592E04D
:1018B0009F938F93DF93CF930E944C2A80913F0395
:1018C0000E94C41AE091FC021E9FF0011124E7530C
:1018D000FB4F8091DE029091DF02A091E002B09177
:1018E000E1024091DA025091DB026091DC027091DA
:1018F000DD02841B950BA60BB70B818B928BA38B00
:10190000B48B2DB73EB7245E3F4F0FB6F8943EBF61
:101910000FBE2DBF43C068E870E08CE793E00E94E3
:10192000260D813001F563E070E087E694E00E94C7
:10193000880D60913F0370E080E090E043E050E06C
:101940000E94C40D63E070E084E694E00E94880D7C
:1019500063E070E08CE793E00E94411480913F03C4
:101960000E94940F1BC062E070E08DE494E00E943E
:10197000880D60913F0370E080E090E042E050E02D
:101980000E94C40D62E070E08AE494E00E94880D39
:1019900062E070E08CE793E00E94411466EA71E037
:1019A0008CE793E0DF91CF911F910F910C941E2A49
:1019B000DF91CF911F910F910895E9ECF4E090E051
:1019C0002081281731F09F5FF4969530C9F78FEF8B
:1019D0000895892F0895CF92DF92EF92FF920E948F
:1019E000FE1C28EE33E040E050E00E94D335209307
:1019F000190330931A0340931B0350931C03C090A8
:101A00002503D0902603E0902703F09028038091CF
:101A1000290390912A03A0912B03B0912C032C153C
:101A20003D054E055F0518F40197A109B1098C1910
:101A30009D09AE09BF09BC01CD01620F731F841F50
:101A4000951FFF90EF90DF90CF9008950F931F9315
:101A5000CF93DF938C01EB0188E193E00E949131F9
:101A60006FEB76E088E193E00E948631E8E1F3E0F5
:101A700001900020E9F73197AF014851534068E1E8
:101A800073E0C8010E94252A892B69F0CE010E94CB
:101A90009831AC01BE01C8010E94A13121E0892B1F
:101AA00019F020E001C022E0822FDF91CF911F9139
:101AB0000F910895BC0180EF93E00E94913180EF77
:101AC00093E00C94C119CF93009701F1C62F813098
:101AD000910519F48CE991E010C08230910519F458
:101AE00087E991E00AC08330910519F482E991E019
:101AF00004C0049721F48CE891E00E945A0DCC2395
:101B000029F084E792E0CF910C94C119CF91089508
:101B1000CF93DF93209101013091020126173707FF
:101B20007CF09B01EC0180910301882321F061E0AE
:101B3000C9010E94630DCE010E94D81910920301C1
:101B4000DF91CF91089560E070E086E996E00C9413
:101B5000880DCF93DF932091010130910201261768
:101B600037077CF09B01EC0180910301882321F071
:101B700061E0C9010E94630DCE010E94C11910925B
:101B80000301DF91CF910895CF93DF93EA019F93F3
:101B90008F937F936F9387E792E09F938F938CE06F
:101BA00093E09F938F930E944C2A8DB79EB708961F
:101BB0000FB6F8949EBF0FBE8DBFBE018CE093E0C0
:101BC000DF91CF910C94A90D60919C0270E080E0B0
:101BD00090E040E050E00E94C40D60E070E08EE9CB
:101BE00096E00E94880D60919B0270E080E090E09A
:101BF00040E050E00E94C40D60E070E08CE996E0A7
:101C00000E94880D60919A0270E080E090E040E0D0
:101C100050E00E94C40D60E070E08AE996E00E9406
:101C2000880D6091990270E080E090E040E050E023
:101C30000C94C40DCF93DF93EC010A9734F460E069
:101C400070E084E996E00E94880DBE01DD0F880BEC
:101C5000990B40E050E0DF91CF910C94C40D2F928E
:101C60003F924F925F926F927F928F929F92AF922C
:101C7000BF92CF92DF92EF92FF920F931F93CF9379
:101C8000DF93CDB7DEB728970FB6F894DEBF0FBE4F
:101C9000CDBF2091010130910201241735070CF4CA
:101CA000FBC02CE3C22ED12CE12CF12CA701960114
:101CB0000E94D33569837A838B839C83CA01B901DF
:101CC000A70196010E94D3352B013C01CA01B9013D
:101CD00028E130E040E050E00E94D33569017A010C
:101CE0006D837E838F839887812C912C540120E013
:101CF000E0E9F1E0022F10E00E54184F180133E034
:101D0000232233242114310491F4C80164E670E0E5
:101D10000E94AC29892B31F4C801BF010E94AC2973
:101D2000892B29F48EE691E0A0E0B0E004C08DE6B6
:101D300091E0A0E0B0E0880E991EAA1EBB1ED5015E
:101D4000C401AA27BB27C816D906EA06FB0610F06D
:101D50002F5FD0CF2114310499F4C80164E670E0FC
:101D60000E94AC29892B39F4C80160E971E00E9416
:101D7000AC29892B29F48EE691E0A0E0B0E004C004
:101D80008DE691E0A0E0B0E0A5019401281B390B9D
:101D90004A0B5B0BC21AD30AE40AF50AC80164E6CF
:101DA00070E00E94AC299C01C80160E971E00E94CA
:101DB000AC29E6E1F1E0B12C41E0B41209C02114F4
:101DC000310451F42115310529F4009729F402C09A
:101DD000408103C04DE101C04CE150E060E070E0A3
:101DE000C416D506E606F70648F0C41AD50AE60A70
:101DF000F70AB39431965CE0B512DECFC8010E94B9
:101E00001A0E60E070E089EC96E00E94880D81E097
:101E10008B0D90E00E941A0E60E070E087EC96E077
:101E20000E94880D81E08C0D90E00E941A0E60E007
:101E300070E085EC96E00E94880D8D819E810E9465
:101E40001A0E60E070E083EC96E00E94880DC201FB
:101E50000E941A0E60E070E081EC96E00E94880D0E
:101E600089819A8128960FB6F894DEBF0FBECDBF48
:101E7000DF91CF911F910F91FF90EF90DF90CF9066
:101E8000BF90AF909F908F907F906F905F904F909A
:101E90003F902F900C941A0E28960FB6F894DEBF40
:101EA0000FBECDBFDF91CF911F910F91FF90EF90AB
:101EB000DF90CF90BF90AF909F908F907F906F906A
:101EC0005F904F903F902F900895CF93DF93EA015A
:101ED0009F938F937F936F938AE892E09F938F9362
:101EE00080E093E09F938F930E944C2A8DB79EB71A
:101EF00008960FB6F8949EBF0FBE8DBFBE0180E05E
:101F000093E0DF91CF910C94A90D209101013091C4
:101F10000201281739073CF08BE792E00E94C119B3
:101F200081E0809303010895CF93C82FA89583E2A1
:101F300094E00E945A0D8FEC97E00E945A0D8BE3BB
:101F400090E00E94D3196C2F70E080E090E040E0B8
:101F500050E00E94C40D8CE290E00E94D31960E032
:101F600070E08CE793E00E94A90D80E290E00E946F
:101F7000D31965EC77E08CE793E00E94260D882367
:101F8000C1F082EB92E09F938F938EE792E09F9354
:101F90008F938CE793E09F938F930E946F2A809199
:101FA000B2020E9401070F900F900F900F900F90B8
:101FB0000F9080E090E0CF910C94850F8F929F92CC
:101FC000AF92BF92EF92FF920F931F93CF93DF9345
:101FD00000D01F92CDB7DEB7082F162F19821A82B4
:101FE0001B82662359F063EF71E0CE0101960E94D7
:101FF0001E2A8BE390E00E94D3190EC06BE772E0BB
:10200000CE0101960E941E2A0E94A30D60E070E09E
:1020100082EB97E00E94880DE02EF12C84E3089F6C
:10202000F0011124E753FB4F608170E080E090E005
:1020300040E050E00E94C40DCE0101960E94C119FB
:10204000111108C00E94A30D60E070E08AEA97E0D9
:102050000E94880D84E38E9DF0018F9DF00D112468
:10206000E753FB4F6181728180E090E040E050E0F7
:102070000E94650FCE0101960E94C119111108C07E
:102080000E94A30D60E070E081EA97E00E94880D55
:1020900084E38E9DF0018F9DF00D1124E753FB4FDB
:1020A000638174818581968140E050E00E94650FD4
:1020B000CE0101960E94C119111108C00E94A30D02
:1020C00060E070E085E997E00E94880D84E38E9DD2
:1020D000F0018F9DF00D1124E753FB4F6781708550
:1020E0008185928540E050E00E94650FCE01019607
:1020F0000E94C119111108C00E94A30D60E070E098
:102100008BE897E00E94880D84E38E9DF0018F9DFF
:10211000F00D1124E753FB4F6385748580E090E058
:1021200040E050E00E94650FCE0101960E94C11967
:10213000111108C00E94A30D60E070E08BE797E0EA
:102140000E94880D84E38E9DF0018F9DF00D112477
:10215000E753FB4F658576858785908940E050E0A1
:102160000E94650FCE0101960E94C119111108C08D
:102170000E94A30D60E070E089E697E00E94880D60
:1021800084E38E9DF0018F9DF00D1124E753FB4FEA
:10219000618972898389948940E050E00E94C40D6E
:1021A000CE0101960E94C119111108C00E94A30D11
:1021B00060E070E08BE597E00E94880D84E38E9DDF
:1021C000F0018F9DF00D1124E753FB4F658970E0FE
:1021D00080E090E040E050E00E94C40DCE01019606
:1021E0000E94C119111108C00E94A30D60E070E0A7
:1021F0008AE497E00E94880D84E38E9DF0018F9D14
:10220000F00D1124E753FB4F628D738D80E090E059
:1022100040E050E00E94650FCE0101960E94C11976
:10222000111108C00E94A30D60E070E081E397E007
:102230000E94880D84E38E9DF0018F9DF00D112486
:10224000E753FB4F66897789808D918D40E050E0A0
:102250000E94650FCE0101960E94C119111108C09C
:102260000E94A30D60E070E083E297E00E94880D79
:1022700084E38E9DF0018F9DF00D1124E753FB4FF9
:10228000648D758D868D978D40E050E00E94650FBE
:10229000CE0101960E94C119111108C00E94A30D20
:1022A00060E070E084E197E00E94880D84E38E9DF9
:1022B000F0018F9DF00D1124E753FB4F80A091A0FA
:1022C000A2A0B3A020E030E048EC52E4C501B40184
:1022D0000E946E320E94DA29CB0164E670E00E940F
:1022E000AC299F938F93C501B4010E94DA297F9393
:1022F0006F938EE892E09F938F938DE293E09F938C
:102300008F930E944C2A60E070E08DE293E00E947F
:10231000A90DCE0101960E94C1190FB6F894DEBF37
:102320000FBECDBF111108C00E94A30D60E070E088
:1023300088E097E00E94880D84E38E9DF0018F9DD8
:10234000F00D1124E753FB4F64A170E080E090E0B2
:1023500040E050E00E94C40DCE0101960E94C119D8
:10236000111108C00E94A30D60E070E08CEF96E0B0
:102370000E94880D84E38E9DF0018F9DF00D112445
:10238000E753FB4F65A176A180E090E040E050E08C
:102390000E94650FCE0101960E94C119111108C05B
:1023A0000E94A30D60E070E081EF96E00E94880D2E
:1023B00084E38E9DF0018F9DF00D1124E753FB4FB8
:1023C00063A9062E000C770B880B990B40E050E0B8
:1023D0000E94C40D111104C080E090E00E94850F9E
:1023E0000F900F900F90DF91CF911F910F91FF9061
:1023F000EF90BF90AF909F908F9008950F931F9391
:10240000CF93DF93D82F09EC14E0C0E0F80180816E
:10241000882341F06D2F8C2F0E94DE0F80E090E02A
:102420000E94850FCF5F0C5C1F4FC53079F7DF919D
:10243000CF911F910F9108958F929F92AF92BF926B
:10244000CF92DF92EF92FF92CF93DF934B015C012B
:102450006093290370932A0380932B0390932C039A
:102460000E94FE1C28EE33E040E050E00E94D3358D
:10247000209325033093260340932703509328038A
:10248000C090AE02D090AF02E090B002F090B102E6
:1024900081E8C81686E4D80688E6E80688E5F806E6
:1024A00008F04DC08092AE029092AF02A092B002AE
:1024B000B092B1028FEF9FEFDC018093D60490932E
:1024C000D704A093D804B093D90480930A059093BD
:1024D0000B05A0930C05B0930D0580933E059093DA
:1024E0003F05A0934005B0934105809372059093FA
:1024F0007305A0937405B09375058093A60590931A
:10250000A705A093A805B093A90564E070E08BEC43
:1025100096E00E94880D0E94EB0C44E050E00E947F
:102520002F0E84E090E0DF91CF91FF90EF90DF904D
:10253000CF90BF90AF909F908F900C94850F0E948A
:10254000EB0CC80CD91CEA1CFB1CC61AD70AE80AFB
:10255000F90AD701C601C0921D0390931E03A093F0
:102560001F03B093200310922103109222031092B4
:10257000230310922403C092AE02D092AF02E092E5
:10258000B002F092B10296CFCF93DF930E94A30DD9
:1025900060E070E088EB96E00E94880DC2EAD6E029
:1025A000FE01859194910E945A0D60E070E080EAEE
:1025B00096E00E94880D229686E0C83BD80781F7F6
:1025C00080E090E0DF91CF910C94850F0F931F93E3
:1025D000CF93DF938C01EB01809101019091020177
:1025E000861797075CF080910301882321F061E052
:1025F000CE010E94630DC8010E94D819CE01DF915F
:10260000CF911F910F910C94850F1F93CF93DF9360
:10261000CDB7DEB728970FB6F894DEBF0FBECDBF9B
:1026200064E070E086EE96E00E94E6128091CD05AF
:102630009091CE05DC01ED91FC910190F081E02DAF
:102640000995882309F48EC08091CF050E941E1A37
:102650008091D8060E941E1A84EF91E09093D605CF
:102660008093D50583E08093D70548E050E06CEC7B
:1026700075E0CE0101960E947D31BE016F5F7F4FF4
:1026800089ED96E00E94D41744EE67E089ED96E06C
:102690000E94FF1640EC68E089ED96E00E94FF166C
:1026A00040E069E089ED96E00E94FF1680919D026E
:1026B0008E3F0CF48EEF8093F8064091F8064E3072
:1026C00024F44E5E4F71406407C042311CF0455FF8
:1026D0004F7101C0425F406661E189ED96E00E9462
:1026E000FF1680919C02898380919B028A8380914E
:1026F0009A028B83809199028C836EE289ED96E039
:102700000E945017182F24E0AE014F5F5F4F6FE219
:1027100089ED96E00E94B116412F477C48696EE230
:1027200089ED96E00E94FF1620E14EE952E06EE34B
:1027300089ED96E00E94B1166DE389ED96E00E9466
:102740005017482F41606DE389ED96E00E94FF1617
:1027500028960FB6F894DEBF0FBECDBFDF91CF91A4
:102760001F91089561E070E08AED96E00E94E61204
:102770006FCF0F931F93CF93DF931F92CDB7DEB729
:1027800063E070E081ED96E00E94E612A8958091EA
:1027900001018983BE016F5F7F4F80E090E00E945E
:1027A000E2066DE972E081E090E00E94E20668EDE9
:1027B00076E082E090E00E94E2066CE972E083E05D
:1027C00090E00E94E2066BE972E084E090E00E94F3
:1027D000E2066AE972E085E090E00E94E20669E9BB
:1027E00072E086E090E00E94E206A89507E010E023
:1027F000B80169567D4FC8010E94E2060F5F1F4F66
:1028000007311105A9F766E972E087E190E00E94BF
:10281000E2060F90DF91CF911F910F91089584E010
:1028200090E0909302018093010183E180939D02E7
:1028300081E08093D80610929C0210929B028093B4
:102840009A028093990290E1E2E2F1E0AEE9B2E00F
:1028500001900D929A95E1F7809396020E94B91328
:102860000C940513CF93DF93EB01BC01990F880BF8
:10287000990BAE010E94C40DCE01DF91CF910C9453
:10288000850F0F931F93CF93DF9320910101309118
:10289000020126173707A4F0EB018C018091030198
:1028A000882321F061E0CE010E94630DC8010E94DF
:1028B000C119CE01DF91CF911F910F910C94850F1B
:1028C000DF91CF911F910F9108951F93CF93DF93C5
:1028D0001F92CDB7DEB7182FA89583E294E06983E5
:1028E0000E945A0D6981611103C08BEB97E002C011
:1028F00080EC97E00E945A0D8BE390E00E94D31980
:10290000612F70E080E090E040E050E00E94C40D54
:102910008CE290E00E94D31960E070E08CE793E0D5
:102920000F90DF91CF911F910C9441140895CF9295
:10293000DF92EF92FF920F931F93CF93DF936C017F
:102940007A018B01C0E0D0E0CE15DF0589F0D80117
:102950006D918D01D601ED91FC910190F081E02DFA
:10296000C6010995892B11F47E0102C02196ECCF96
:10297000C701DF91CF911F910F91FF90EF90DF90F2
:10298000CF900895089580E090E00895FC01538D64
:10299000448D252F30E0842F90E0821B930B541739
:1029A00010F0CF96089501970895FC01918D828DC6
:1029B000981761F0828DDF01A80FB11D5D968C9193
:1029C000928D9F5F9F73928F90E008958FEF9FEF9E
:1029D0000895FC01918D828D981731F0828DE80F5A
:1029E000F11D858D90E008958FEF9FEF0895FC0114
:1029F000918D228D892F90E0805C9F4F821B9109E1
:102A00008F73992708958CE294E00E94F71421E0D7
:102A1000892B09F420E0822F0895FC01848DDF01C9
:102A2000A80FB11DA35ABF4F2C91848D90E0019641
:102A30008F739927848FA689B7892C93A089B18930
:102A40008C9180648C93938D848D981306C002883A
:102A5000F389E02D80818F7D80830895EF92FF922E
:102A60000F931F93CF93DF93EC0181E0888F9B8DB1
:102A70008C8D981305C0E889F989808185FD24C073
:102A8000F62E0B8D10E00F5F1F4F0F731127E02EF6
:102A90008C8DE8120CC00FB607FCFACFE889F989D3
:102AA000808185FFF5CFCE010E940D15F1CF8B8D72
:102AB000FE01E80FF11DE35AFF4FF0820B8FEA8908
:102AC000FB898081806207C0EE89FF896083E88985
:102AD000F98980818064808381E090E0DF91CF91EB
:102AE0001F910F91FF90EF900895CF93DF93EC012A
:102AF000888D8823C9F0EA89FB89808185FD05C01E
:102B0000A889B9898C9186FD0FC00FB607FCF5CF57
:102B1000808185FFF2CFA889B9898C9185FFEDCF9F
:102B2000CE010E940D15E7CFDF91CF91089580E08F
:102B300090E0892B29F00E94031581110C9400006C
:102B40000895FC01738362830895FC017783668393
:102B50000895FC01758364830895089508958CE3B6
:102B600008950E94102ACF93DF93EC01888D998DF0
:102B7000DC01ED91FC910680F781E02D099561E083
:102B80008A8D0E94881C61E08A8D0E94171C64E671
:102B900070E080E090E00E94C41C81E0DF91CF9162
:102BA0000895CF92DF92EF92FF920F931F93CF93EE
:102BB000DF93EC016B018A01E881F9810280F381E6
:102BC000E02D0995F82E8823E1F0C114D104B1F06D
:102BD0000115110599F0EFB6F89488A1F8019081DC
:102BE000891710F488A18083F801408150E0BE016C
:102BF0006F5D7F4FC6010E94152AEFBEC35ADF4F9B
:102C000018828F2DDF91CF911F910F91FF90EF9040
:102C1000DF90CF9008951F920F920FB60F9211245C
:102C20002F933F934F935F936F937F938F939F93D4
:102C3000AF93BF93EF93FF93E0910601F0910701EB
:102C40000995FF91EF91BF91AF919F918F917F91E6
:102C50006F915F914F913F912F910F900FBE0F9009
:102C60001F9018951F920F920FB60F9211242F9359
:102C70003F934F935F936F937F938F939F93AF9304
:102C8000BF93EF93FF93E0910401F0910501099543
:102C9000FF91EF91BF91AF919F918F917F916F9134
:102CA0005F914F913F912F910F900FBE0F901F900A
:102CB00018951F920F920FB60F9211242F933F93E6
:102CC0004F935F936F937F938F939F93AF93BF9334
:102CD000EF93FF938CE294E00E940D15FF91EF912A
:102CE000BF91AF919F918F917F916F915F914F9124
:102CF0003F912F910F900FBE0F901F9018951F922C
:102D00000F920FB60F9211242F938F939F93EF93EF
:102D1000FF93E0913C04F0913D048081E0914204F6
:102D2000F091430482FD12C09081809145048F5F31
:102D30008F7320914604821751F0E0914504F0E032
:102D4000E45DFB4F958F8093450401C08081FF9126
:102D5000EF919F918F912F910F900FBE0F901F9029
:102D60001895AF92BF92DF92EF92FF920F931F934D
:102D7000CF93DF9300D0CDB7DEB78C01E62EF42ED3
:102D8000DFB6F89460E0DC015A968C9129835A836F
:102D90000E94171CF801808D918DDC01ED91FC9152
:102DA0006E2D60680190F081E02D0995E82EAF2C22
:102DB0005A81B52E2981F20EFA1471F0F801808D36
:102DC000918DD5016D915D01DC01ED91FC9101903A
:102DD000F081E02D0995F0CF61E0F801828D0E942D
:102DE000171CDFBE8E2D0F900F90DF91CF911F919A
:102DF0000F91FF90EF90DF90BF90AF900895EF920A
:102E0000FF920F931F93CF93DF931F92CDB7DEB73F
:102E10007C01162F0FB7F89460E0DC015A968C9174
:102E200049830E94171CF701808D918DDC01ED9183
:102E3000FC91612F60680190F081E02D0995182FB9
:102E4000F701808D918DDC01ED91FC910190F08175
:102E5000E02D4981642F099561E0F701828D0E9480
:102E6000171C0FBF812F0F90DF91CF911F910F91F2
:102E7000FF90EF900895CF93DF93FC01228133817F
:102E80002130310549F0EC0140E061E00E94FF167D
:102E900081E090E09B838A8381E0DF91CF91089568
:102EA0000F931F93CF93DF93EC01162F0FB7F89476
:102EB00060E08A8D0E94171C888D998DDC01ED9150
:102EC000FC91612F6F770190F081E02D0995888D3D
:102ED000998DDC01ED91FC910190F081E02D60E095
:102EE0000995182F61E08A8D0E94171C0FBF812F52
:102EF000DF91CF911F910F9108950F931F93CF935F
:102F00008C01C62F61E00E945017837ECC71482F40
:102F10004C2B61E0C8010E94FF1667E2C8010E94C5
:102F2000501787FFFACFCF911F910F910895CF933C
:102F3000DF93FC01228133812330310519F1EC014B
:102F4000828193810497D1F0878D823154F045E5D9
:102F50006AE5CF010E94FF1640E76CE5CE010E94B2
:102F6000FF1640E465E2CE010E94FF1660E1CE014B
:102F70000E947D1784E090E09B838A83C35ADF4FD1
:102F8000888101C080E0DF91CF910895CF93DF93D6
:102F9000EC016DE30E945017482F4E7F6DE3CE0188
:102FA000DF91CF910C94FF160F931F93CF93DF9374
:102FB000EC018B0125E0AB0162E00E94B116A80193
:102FC0004B5F5F4F22E069E1CE010E94B116F8012C
:102FD000478167E3CE01DF91CF911F910F910C9450
:102FE000FF16CF93DF93FC0122813381223031051C
:102FF000B1F0EC01878D823154F045E56AE5CF01EF
:103000000E94FF1640E76CE5CE010E94FF166D8D11
:10301000CE010E947D1782E090E09B838A83DF913E
:10302000CF910895BF92CF92DF92EF92FF920F93CC
:103030001F93CF93DF93EC01B62EC72E142F4D3381
:1030400010F000E08BC0E881F9810484F585E02D63
:103050000995CE010E94F117E881F9810288F38970
:10306000E02DCE010995082F882359F3DFB6F89497
:1030700060E08A8D0E94171C888D998DDC01ED918E
:10308000FC910190F081E02D60E80995A88DB98D43
:10309000ED91FC9111970190F081E02D64E0610FBA
:1030A000CD010995888D998DDC01ED91FC91019000
:1030B000F081E02D6A850995888D998DDC01ED916F
:1030C000FC910190F081E02D6B850995888D998D9B
:1030D000DC01ED91FC910190F081E02D6C8509956A
:1030E000888D998DDC01ED91FC910190F081E02DAE
:1030F0006D850995EB2CFC2C115068F0888D998D0D
:10310000F70161917F01DC01ED91FC910190F0816B
:10311000E02D0995F1CF61E08A8D0E94171CDFBE7A
:103120008A819B810397D1F08F8D823154F04DE5D8
:103130006AE5CE010E94FF164CE76CE5CE010E94C5
:10314000FF1640E065E2CE010E94FF166CE0CE0162
:103150000E947D1783E090E09B838A83802FDF911C
:10316000CF911F910F91FF90EF90DF90CF90BF9084
:103170000895EF92FF920F931F93CF93DF93EC018B
:1031800068E20E945017182F8A819B81039711F4DF
:1031900013FD08C08A819B81049709F0A2C012FD2B
:1031A0000BC09FC0CE010E94F1172B893C892F5F75
:1031B0003F4F3C8B2B8BEECF64E2CE010E94501729
:1031C000869581958E870E94FE1CFE01E25AFF4F74
:1031D0006083718382839383CE010E94F117FFB6CF
:1031E000F89460E08A8D0E94171C888D998DDC010F
:1031F000ED91FC910190F081E02D60E00995888DC2
:10320000998DDC01ED91FC910190F081E02D60E061
:103210000995082F8CEF800F8D3300F5888D998DDF
:10322000DC01ED91FC910190F081E02D60E00995C9
:103230008E838D81811118C09E818C819817A1F099
:103240008E818F3F59F410C089899A8901969A8B93
:10325000898B81E0FE01E35AFF4F808361E08A8D14
:103260000E94171CFFBE3DC0888D998DDC01ED9139
:10327000FC910190F081E02D60E009958F83888DAD
:10328000998DDC01ED91FC910190F081E02D60E0E1
:1032900009958887888D998DDC01ED91FC910190CD
:1032A000F081E02D60E00995898718A210E00450B4
:1032B000110988A190E08017910734F6E8A0888D65
:1032C000998DDC01ED91FC910190F081E02D60E0A1
:1032D0000995FE01EE0DF11D81A388A18F5F88A3E2
:1032E000E8CFDF91CF911F910F91FF90EF9008955C
:1032F00080913D0390913E03009711F00C94B91812
:10330000089580913B0390913C03009711F00C9439
:10331000B91808958091390390913A03009711F0FC
:103320000C94B91808958091CD059091CE05DC01DB
:10333000ED91FC910484F585E02D0994FF920F93A3
:103340001F93CF93DF938C01F62ECDECD5E08881CF
:103350009981DC01ED91FC91008CF18DE02D642FC1
:10336000099588819981DC01ED91FC910680F781B6
:10337000E02D4F2DB801DF91CF911F910F91FF905C
:103380000994009769F0FC0101900020E9F731975A
:10339000AF01481B590BBC018CE294E00C949714CC
:1033A00080E090E00895682F8CE294E00C942E1554
:1033B0000F931F93CF93DF938C01C0E0D0E0F8010F
:1033C000EC0FFD1F6491662371F0E0912C04F091E5
:1033D0002D040190F081E02D8CE294E00995892B79
:1033E00011F02196ECCFCE01DF91CF911F910F917B
:1033F0000895CF93DF93EC016FE378E080EF93E0E3
:103400000E949131BE0180EF93E00E948631E0EF8F
:10341000F3E001900020E9F73197AF01405F53409E
:1034200060EF73E088EC93E00E94252A21E0892B6D
:1034300009F020E0822FDF91CF9108951F93CF9361
:10344000DF93182FCDECD5E088819981DC01ED91D7
:10345000FC910688F789E02D612F09958881998173
:10346000DC01ED91FC91028CF38DE02D612F09952B
:103470001A83DF91CF911F910895FF920F931F93AD
:10348000CF93DF931F92CDB7DEB7F62E0DEC15E08C
:10349000F801A081B181ED91FC911197048CF58D1B
:1034A000E02D682FCD010995D8018D919C91DC010B
:1034B000ED91FC91068CF78DE02D40E060E80995D8
:1034C00081E289834F2D61E0CE0101960E949E1911
:1034D0000E9493190F90DF91CF911F910F91FF9050
:1034E0000895CF92DF92EF92FF920F931F93CF93A5
:1034F000DF936C017B018A01E901892B69F08091DE
:10350000CD059091CE05DC01ED91FC9104A0F5A1D3
:10351000E02D0995F6018083E114F10469F08091B2
:10352000CD059091CE05DC01ED91FC9102A0F3A1B7
:10353000E02D0995F70180830115110569F080914F
:10354000CD059091CE05DC01ED91FC9106A0F7A18F
:10355000E02D0995F8018083209761F08091CD05D9
:103560009091CE05DC01ED91FC9100A4F1A5E02D38
:103570000995888381E0DF91CF911F910F91FF9092
:10358000EF90DF90CF9008953F924F925F926F92AD
:103590007F928F929F92AF92BF92CF92DF92EF92E3
:1035A000FF920F931F93CF93DF9300D000D0CDB73E
:1035B000DEB7382E0CE713E0F80101900020E9F7A0
:1035C0003197EC57F340FD9760F061E070E080E3E5
:1035D00098E00E94880D61E070E0C8010E944114EB
:1035E000F6C08CE3E0E4F3E0DF011D928A95E9F791
:1035F00064E070E086E298E00E94880D64E070E08C
:103600008CE793E00E944114F80101900020E9F753
:103610003197AF014C5753406CE773E080E493E07F
:103620000E94152AA8951091D4051F5F1093D40508
:1036300020E0412C512C3201539401E0020F809183
:10364000D705821708F4B6C08091CD059091CE05BC
:10365000DC01ED91FC91048CF58DE02D612F099535
:103660008091CD059091CE05DC01ED91FC91068C09
:10367000F78DE02D40E860E00995432D6CE380E490
:1036800093E00E949E190E949319BFEF3B1609F424
:103690008EC0023098F08091D0059091D105A09114
:1036A000D205B091D3050196A11DB11D8093D0051F
:1036B0009093D105A093D205B093D3050E94FE1C30
:1036C0006B017C01A090D505B090D6050E94E62D37
:1036D000A30192010E94F5359B01AC01D5010E9426
:1036E0001436A30192010E94F5352A0D3B1D4601B7
:1036F0005701820E931EA11CB11C0E94FE1CA50145
:103700009401261B370B480B590BCA01B901202F16
:1037100016161706180619060CF08FCFA091CD05C6
:10372000B091CE05ED91FC9111970088F189E02DC3
:10373000CD010995882309F38091CD059091CE059F
:10374000DC01ED91FC910480F581E02D40E050E03A
:1037500060E070E00995882381F29E012F5F3F4F62
:10376000AE014E5F5F4FBE016D5F7F4FCE0104968D
:103770000E94711A882309F26C81898163110AC041
:103780002B819091CF05291305C087FF03C09A8133
:10379000911769F087FDB1CF8A81E62FF0E0E353FE
:1037A000FA4F93858913A9CF0E943D1AA6CFA895F9
:1037B000A8950DC062E070E08AE198E00E94880D53
:1037C00062E070E08CE793E00E944114F1CF0F902B
:1037D0000F900F900F90DF91CF911F910F91FF905D
:1037E000EF90DF90CF90BF90AF909F908F907F90A1
:1037F0006F905F904F903F9008958230B8F4E82F1B
:10380000F0E0EE0FFF1FEC5FFE4F718360838130AD
:1038100039F080916900836080936900E89A089587
:10382000809169008C6080936900E99A089590E026
:10383000FC01EA5FF74F3491FC01EE50F84F249100
:10384000FC01E252F84FE491EE2309F43BC033232C
:1038500039F1333091F038F43130A9F0323001F5DC
:1038600084B58F7D12C0373091F03830A1F03430FC
:10387000B9F4809180008F7D03C0809180008F77A4
:10388000809380000DC084B58F7784BD09C080917E
:10389000B0008F7703C08091B0008F7D8093B0001F
:1038A000F0E0EE0FFF1FEC52F84FA591B4918FB7E7
:1038B000F894EC91611103C020952E2301C02E2BAA
:1038C0002C938FBF08953FB7F8948091480790914B
:1038D0004907A0914A07B0914B0726B5A89B05C0A0
:1038E0002F3F19F00196A11DB11D3FBFBA2FA92F7F
:1038F000982F8827820F911DA11DB11DBC01CD01FC
:1039000042E0660F771F881F991F4A95D1F70895E7
:10391000CF93DF9390E0FC01EE50F84F2491FC012F
:10392000E252F84F8491882361F190E0880F991F4B
:10393000FC01EC5BF74FC591D491FC01EC52F84FC0
:10394000A591B491611109C09FB7F8948881209521
:1039500082238883EC912E230BC0623061F49FB7E1
:10396000F8943881822F809583238883EC912E2BC5
:103970002C939FBF06C08FB7F894E8812E2B288325
:103980008FBFDF91CF9108958F929F92AF92BF9298
:10399000CF92DF92EF92FF926B017C010E94631C39
:1039A0004B015C01C114D104E104F104F1F00E9467
:1039B000631CDC01CB0188199909AA09BB09883E5F
:1039C0009340A105B10570F321E0C21AD108E108C6
:1039D000F10888EE880E83E0981EA11CB11CC1146A
:1039E000D104E104F10419F7DDCFFF90EF90DF90EF
:1039F000CF90BF90AF909F908F9008952FB7F8947D
:103A00006091440770914507809146079091470760
:103A10002FBF08951F920F920FB60F9211242F936C
:103A20003F938F939F93AF93BF938091440790915F
:103A30004507A0914607B09147073091430723E01F
:103A4000230F2D3720F40196A11DB11D05C026E8D6
:103A5000230F0296A11DB11D2093430780934407B5
:103A600090934507A0934607B09347078091480776
:103A700090914907A0914A07B0914B070196A11D6B
:103A8000B11D8093480790934907A0934A07B093CC
:103A90004B07BF91AF919F918F913F912F910F90C5
:103AA0000FBE0F901F901895CF93DF93CDB7DEB761
:103AB00069970FB6F894DEBF0FBECDBF789484B57A
:103AC000826084BD84B5816084BD85B5826085BD1A
:103AD00085B5816085BD80916E00816080936E00A8
:103AE000109281008091810082608093810080919A
:103AF000810081608093810080918000816080934B
:103B000080008091B10084608093B1008091B0000A
:103B100081608093B00080917A00846080937A0005
:103B200080917A00826080937A0080917A0081602F
:103B300080937A0080917A00806880937A00109256
:103B4000C10060E086E00E94881C61E084E00E9481
:103B5000881C60E084E00E94171C62E083E00E9401
:103B6000881C62E085E00E94881C62E087E00E9479
:103B7000881C62E088E00E94881C62E089E00E9464
:103B8000881C62E08EE00E94881C62E08FE00E9448
:103B9000881C62E080E10E94881C62E081E10E9452
:103BA000881C62E082E10E94881C62E083E10E943E
:103BB000881CE0913C04F0913D0482E08083E09118
:103BC0003804F09139041082E0913A04F0913B04FA
:103BD00010E1108310924404E0914004F0914104FC
:103BE00086E08083E0913E04F0913F048081806113
:103BF0008083E0913E04F0913F048081886080835F
:103C0000E0913E04F0913F04808180688083E091E0
:103C10003E04F0913F0480818F7D808380E090E0BE
:103C20000E94850F80E090E00E94850F60E070E0C8
:103C30008DE890E00E94E612809154070E940107EF
:103C40001D8A9E012F5F3F4F7901D9011D921A9560
:103C5000E9F763E070E080E790E00E94E612A89543
:103C60006E01B5E1CB0ED11CB60180E090E00E9460
:103C7000D8068D89853038F490E0909302018093C6
:103C8000010111E001C010E081E090E00E94AD353B
:103C90008E3F24F0853114F40C94342810E0B601E2
:103CA00082E090E00E94D8068D899FEF980F9E3F9A
:103CB00018F48093D80601C010E0B60183E090E0CC
:103CC0000E94D8068D898F3F19F080939C0201C015
:103CD00010E0A895B60184E090E00E94D8068D8996
:103CE0008F3F19F080939B0201C010E0B60185E080
:103CF00090E00E94D8068D899FEF980F9E3F18F4A0
:103D000080939A0201C010E0B60186E090E00E9424
:103D1000D8068D899FEF980F9E3F18F480939902E3
:103D200001C010E080E1F70111928A95E9F757018F
:103D300087E0882E912C00E10E0DB501C4010E9490
:103D4000D806F5018081FFEFAF1ABF0A80528F3588
:103D500008F010E02FEF821A920A0A11EECF112319
:103D600079F080E1EEE9F2E0DF01282F1D922A953B
:103D7000E9F7F701AEE9B2E001900D928A95E1F71B
:103D8000B60187E190E00E94D8068D89823058F014
:103D900061E070E088E690E00E94E6120E940F1455
:103DA0000E94B91304C080939602112389F30E94E4
:103DB000051388E890E09F938F930CE713E01F931F
:103DC0000F930E94E531809154071F928F931F92A9
:103DD0008AE08F931F930F9388E891E09F938F93CE
:103DE0001F930F930E944C2A8091D8060E94940F33
:103DF00064E070E08FE790E00E94E61260E876E40D
:103E000088E698E50E941C12A89583E294E00E943F
:103E10005A0D89E790E00E945A0D80E090E00E94E0
:103E2000850F83E00E947B0799E288E10FB6F89442
:103E3000A895809360000FBE909360000FB6F89431
:103E4000DEBF0FBECDBF1E0197E1290E311C4E0112
:103E5000A8E18A0E911C5E01B9E1AB0EB11C81E0B4
:103E60008093D8028091D802863010F00C943028CC
:103E70008CE294E00E94D514A8951816190614F047
:103E80000C944C279C01205231092036310540F01A
:103E90008D30910529F08830910511F00C944C2754
:103EA000E091D702E73210F40C9486288D3091050A
:103EB00079F0089709F0F0C7E150E093D702F0E0FD
:103EC000E853FC4F108283EA91E00E94C119E4C7D5
:103ED00080E090E00E94850F8091D7021092D70277
:103EE000882309F4D9C76FE378E088EC93E00E9457
:103EF000260D813009F013C4A89587E194E00E9453
:103F0000F919813009F061C0E8ECF3E0019000207C
:103F1000E9F7AF014E5C534062ED73E080EF93E050
:103F20000E943D2A40E050E060E070E080EF93E0C6
:103F30000E9462306093B2027093B3028093B40225
:103F40009093B502611571058105910519F10E94E3
:103F50001C1283E294E00E945A0D8DE094E00E94CE
:103F60005A0D80E090E00E94850F64E070E087EFDA
:103F700093E00E94880D0E94EB0C44E050E00E9408
:103F80002F0E64E070E086EA91E00E94A90D84E0C3
:103F900090E0E6C283E294E00E945A0D8CEE93E03A
:103FA0000E945A0D80E090E00E94850F62E070E070
:103FB00086ED93E00E94880D62E070E086EA91E071
:103FC0000E94A90D82E090E0CBC28EEC93E00E94AB
:103FD000F919813009F06FC083E294E00E945A0D14
:103FE00087EC93E00E945A0D8BE390E00E94D31976
:103FF0006091D80670E080E090E040E050E00E94E0
:10400000C40D8CE290E00E94D3196091AE027091D1
:10401000AF028091B0029091B10240E050E00E9466
:10402000650F8CE290E00E94D31980914E07909129
:104030004F07009711F485E597E0B701681B790BEE
:1040400080E090E040E050E00E94650F8CE290E05C
:104050000E94D3190E94EB0C40E050E00E94650FD3
:104060008CE290E00E94D31960E080910101909170
:1040700002010E94630D8CE290E00E94D31940E19E
:1040800050E06EE972E08CE294E00E9497148CE2BA
:1040900090E00E94D3190E94E40D8CE290E00E940F
:1040A000D31960919D0270E080E090E040E050E024
:1040B0000E94C40DD9C68FEB93E00E94F91981309C
:1040C00009F049C0E8ECF3E001900020E9F7AF0106
:1040D000405D534064ED73E080EF93E00E943D2A21
:1040E00040E050E060E070E080EF93E00E946230DA
:1040F000862F6093D1020E94DD0C8093000183E241
:1041000094E00E945A0D8091D1028E3F41F488EBD9
:1041100093E00E945A0D81E00E94FE11A5C6809195
:1041200000018F3F41F088EB93E00E945A0D61E05F
:104130008091000197C68BEA93E00E945A0D8BE3B1
:1041400090E00E94D3198091D10260E070E090E08D
:104150000E943214A1C685EA93E00E94F9198130C9
:1041600009F0A9C0E8ECF3E001900020E9F7AF0105
:104170004E5C534062ED73E080EF93E00E943D2A75
:104180008DEC92E09F938F9381ED92E09F938F93BC
:1041900087EA91E09F938F9380EF93E09F938F93B3
:1041A0000E946F2A8091D1020E94DD0C8093000151
:1041B00083E294E00E945A0DE09100010FB6F8945A
:1041C000DEBF0FBECDBFEF3F89F18091CD02909150
:1041D000CE02A091CF02B091D002AC01BD014150FE
:1041E0005109610971094E3F5F4F6F4F7F4FF0F4E6
:1041F00024E3E29FF0011124E753FB4F80A791A72E
:10420000A2A7B3A78BE993E00E945A0D8BE390E03D
:104210000E94D3198091D10260E070E090E00E948A
:10422000321463E070E085E893E013C08AE793E01E
:104230000E945A0D8BE390E00E94D3198091D10225
:1042400060E070E090E00E94321462E070E087E687
:1042500093E00E94880D63E070E08FE593E00E9498
:10426000880D6091D10270E080E090E043E050E082
:104270000E94C40D63E070E082E593E00E94880D27
:104280006091CD027091CE028091CF029091D002C8
:104290002091010130910201233031050CF45EC1FF
:1042A00040E050E00E94650F60E070E085EE91E034
:1042B0000E94880D53C18CE493E00E94F91981306B
:1042C00009F0B4C0E8ECF3E001900020E9F7AF0199
:1042D0004E5C534062ED73E080EF93E00E943D2A14
:1042E00085EC92E09F938F9389EC92E09F938F935C
:1042F00081ED92E09F938F9380EB91E09F938F935A
:1043000080EF93E09F938F930E946F2A8091D10258
:104310000E94DD0C8093000183E294E00E945A0D1C
:10432000E09100010FB6F894DEBF0FBECDBFEF3FA6
:10433000C1F14091C9025091CA026091CB027091C3
:10434000CC024F3F51056105710558F58091C502BA
:104350009091C602A091C702B091C802893BFBE0D0
:104360009F07A105B105E8F424E3E29FF0011124C1
:10437000E753FB4F44A796A785A782E493E00E94EA
:104380005A0D8BE390E00E94D3198091D10260E036
:1043900070E090E00E94321463E070E088E293E005
:1043A00013C08DE193E00E945A0D8BE390E00E94D0
:1043B000D3198091D10260E070E090E00E94321445
:1043C00062E070E082E093E00E94880D63E070E0BC
:1043D0008AEF92E00E94880D6091D10270E080E047
:1043E00090E043E050E00E94C40D63E070E081EE95
:1043F00092E00E94880D6091C9027091CA0280917A
:10440000CB029091CC0243E050E00E94650F63E044
:1044100070E084ED92E00E94880D6091C502709179
:10442000C6028091C7029091C80294C08EEC92E0BF
:104430000E94F919813009F096C0E8ECF3E0019090
:104440000020E9F7AF014E5C534062ED73E080EF6E
:1044500093E00E943D2A81EC92E09F938F9381ED3F
:1044600092E09F938F938DEB91E09F938F9380EFDA
:1044700093E09F938F930E946F2A8091D1020E94B4
:10448000DD0C8093000183E294E00E945A0DE091DC
:1044900000010FB6F894DEBF0FBECDBFEF3F41F174
:1044A0008091C1029091C202A091C302B091C40256
:1044B0008F3F9105A105B105D8F424E3E29FF001F7
:1044C0001124E753FB4F87A384EC92E00E945A0D1E
:1044D0008BE390E00E94D3198091D10260E070E0FC
:1044E00090E00E94321463E070E085EA92E013C02D
:1044F0008AE992E00E945A0D8BE390E00E94D31962
:104500008091D10260E070E090E00E94321462E09D
:1045100070E08EE792E00E94880D63E070E086E72D
:1045200092E00E94880D6091D10270E080E090E0FE
:1045300043E050E00E94C40D63E070E085E692E045
:104540000E94880D6091C1027091C2028091C302E5
:104550009091C40243E050E00E94650F83E090E038
:104560000E94850F99C48FE592E00E94F91981306D
:1045700009F0C8C0E8ECF3E001900020E9F7AF01D2
:104580004E5C534062ED73E080EF93E00E943D2A61
:10459000A9EBB2E0BF93AF938DEB92E09F938F9323
:1045A00081ED92E09F938F9380EB91E09F938F93A7
:1045B00080EF93E09F938F930E946F2A8091D102A6
:1045C0000E94DD0C8093000183E294E00E945A0D6A
:1045D000E09100010FB6F894DEBF0FBECDBFEF3FF4
:1045E00009F443C04091BD025091BE026091BF02E8
:1045F0007091C002DB01CA010A97A109B1098F3489
:104600009240A105B10588F58091B9029091BA0256
:10461000A091BB02B091BC028C019D010A5011090E
:10462000210931090F3A1B4021053105F0F424E33B
:10463000E29FF0011124E753FB4F50AB47A792AB29
:1046400081AB85E592E00E945A0D8BE390E00E94D9
:10465000D3198091D10260E070E090E00E943214A2
:1046600063E070E089E392E013C08EE292E00E9482
:104670005A0D8BE390E00E94D3198091D10260E043
:1046800070E090E00E94321462E070E082E192E01B
:104690000E94880D63E070E08AE092E00E94880D3D
:1046A0006091D10270E080E090E043E050E00E9431
:1046B000C40D63E070E087E092E00E94880D609195
:1046C000BD027091BE028091BF029091C00243E092
:1046D00050E00E94650F63E070E080E092E00E948D
:1046E000880D6091B9027091BA028091BB029091DD
:1046F000BC0243E050E00E94650F63E070E08EEF83
:1047000091E0BBC362E070E089EE91E00E94880D09
:1047100062E070E088EC93E00E944114BDC384E144
:10472000D7011D928A95E9F71092B2021092B30256
:104730001092B4021092B502A89560EE71E088EC78
:1047400093E00E94260D813029F40E94C41201E0FA
:1047500010E002C000E010E06AED71E088EC93E048
:104760000E94260D8130B9F50E94A30D60E070E033
:1047700082ED91E00E94880D6091AE027091AF02CF
:104780008091B0029091B10240E050E00E942F0E63
:1047900080E090E00E94850F0E94A30D60E070E031
:1047A00084EC91E00E94880D80914E0790914F0714
:1047B000009711F485E597E0B601681B790B80E05E
:1047C00090E040E050E00E94650F80E090E00E94A1
:1047D000850F02E010E06FEB71E088EC93E00E943F
:1047E000260D813021F40E940F1401E010E06AEBE5
:1047F00071E088EC93E00E94260D823071F5E8ECC0
:10480000F3E001900020E9F7AF014E5C53406DECFE
:1048100073E0C7010E943D2A40E050E060E070E094
:10482000C7010E9462306093B2027093B30280931A
:10483000B4029093B502611571058105910529F0C7
:104840000E941C1201E010E00BC00E94A30D60E06A
:1048500070E081EB91E00E94880D0230110541F07B
:104860006AEB71E088EC93E00E94260D882319F131
:104870000E94A30D60E070E08BEA91E00E94880D39
:104880000E94EB0C40E050E00E942F0E60E070E0D0
:1048900087EA91E00E94880D0E94EB0C40E050E016
:1048A0000E94650F80E090E00E94850F02301105A4
:1048B00011F001E010E062EA71E088EC93E00E9400
:1048C000260D823009F056C0E8ECF3E0019000209C
:1048D000E9F7AF014E5C53406DEC73E080EF93E07D
:1048E0000E943D2A6CE971E080EF93E00E94260D62
:1048F000813039F4E1E0F0E0F0930201E09301014E
:1049000034C067E971E080EF93E00E94260D8130AA
:1049100039F422E030E0309302012093010125C0F8
:1049200062E971E080EF93E00E94260D813039F456
:1049300083E090E0909302018093010116C06CE83F
:1049400071E080EF93E00E94260D813039F4A4E0FD
:10495000B0E0B0930201A093010107C00E94A30D33
:1049600060E070E081E891E088C20E94B91301E044
:1049700010E003C00230110541F062EA71E088ECFA
:1049800093E00E94260D8823C1F00E94A30D60E0F1
:1049900070E089E791E00E94880D60E0809101015C
:1049A000909102010E94630D80E090E00E94850FCB
:1049B0000230110511F001E010E064E771E088ECCD
:1049C00093E00E94260D823079F5E8ECF3E0019047
:1049D0000020E9F7AF014E5C53406DEC73E080EFCF
:1049E00093E00E943D2AE0EFF3E001900020E9F718
:1049F000E150F44049F00E94A30D60E070E08CE6C5
:104A000091E00E94E61210C080E1E0EFF3E0AEE931
:104A1000B2E001900D928A95E1F70E94B9130E94CD
:104A2000051301E010E003C00230110541F064E716
:104A300071E088EC93E00E94260D8823C9F00E9463
:104A4000A30D60E070E087E691E00E94880D40E1F0
:104A500050E06EE972E08CE294E00E94971480E0EE
:104A600090E00E94850F0230110511F001E010E086
:104A700062E671E088EC93E00E94260D823009F036
:104A800046C0E8ECF3E001900020E9F7AF014E5C8E
:104A900053406DEC73E080EF93E00E943D2A198E45
:104AA000188E1F8A1D8ADF92CF923F922F929F927B
:104AB0008F92BF92AF92A5ECB1E0BF93AF9380EF1E
:104AC00093E09F938F930E946F2A0FB6F894DEBFF6
:104AD0000FBECDBF049749F00E94A30D60E070E0C7
:104AE00089E591E00E94E61212C0898D80939C02B4
:104AF000888D80939B028F8980939A028D89809301
:104B000099020E94B9130E94051301E010E00230DF
:104B1000110509F4ADC262E671E088EC93E00E94F1
:104B2000260D8111A5C26CE471E088EC93E00E942F
:104B3000260D8230D9F5E8ECF3E001900020E9F78A
:104B4000AF014E5C53406DEC73E0C7010E943D2AFB
:104B500040E050E060E070E0C7010E946230609386
:104B6000B2027093B3028093B4029093B5022B010A
:104B70003C0131E0431A510861087108ADEF4A1653
:104B800051046104710448F00E94A30D60E070E0DC
:104B900080E491E00E94E61209C06093D8060E946A
:104BA000B9130E94051301E010E003C002301105A3
:104BB00041F06CE471E088EC93E00E94260D8823BC
:104BC000A1F00E94A30D60E070E087E391E00E94F5
:104BD000880D8091D80660E070E090E00E94321469
:104BE0000230110511F001E010E062E371E088ECA1
:104BF00093E00E94260D823029F5E8ECF3E0019065
:104C00000020E9F7AF014E5C53406DEC73E0C70143
:104C10000E943D2A40E050E060E070E0C7010E9441
:104C2000512F6093B7027093B80282E0860F8731EC
:104C300008F433C20E94A30D60E070E085E291E0C9
:104C40000E94E6120230110549F062E371E088EC3F
:104C500093E00E94260D882309F454C00E94A30DFE
:104C600060E070E08DE191E00E94880D80919D02EE
:104C700060E070E090E00E9432140E94A30D60E0BA
:104C800070E08CE091E00E94880D60919802062E01
:104C9000000C770B880B990B40E050E00E94C40D8C
:104CA00060E070E080E091E00E94880D80913F0319
:104CB00060E070E090E00E9432140E94A30D60E07A
:104CC00070E08FEE90E00E94880D60913F0370E0ED
:104CD00080E090E040E050E00E94C40D60E070E0B1
:104CE0008DEE90E00E94880D8091970260E070E068
:104CF000082E000C990B0E9432140230110511F09D
:104D000001E010E068EE70E088EC93E00E94260D70
:104D1000823091F5E8ECF3E001900020E9F7AF0173
:104D20004E5C53406DEC73E0CE0101960E943D2A2B
:104D300040E050E060E070E0CE0101960E946230F9
:104D40006093B2027093B3028093B4029093B50261
:104D5000623071058105910538F4609396020E94D6
:104D6000B91301E010E00BC00E94A30D60E070E0F9
:104D70008FED90E00E94E6120230110541F068EEDE
:104D800070E088EC93E00E94260D8823A1F00E9439
:104D9000A30D60E070E083ED90E00E94880D8091AB
:104DA000960260E070E090E00E943214023011053B
:104DB00011F001E010E06DEC70E088EC93E00E94EF
:104DC000260D813029F480E00E94FE1101E010E000
:104DD0006DEC70E088EC93E00E94260D823009F0C3
:104DE0004FC0E8ECF3E001900020E9F7AF014F5C21
:104DF00053406EEC73E080EF93E00E943D2A40E068
:104E000050E060E070E080EF93E00E9462306093D9
:104E1000B2027093B3028093B4029093B5028B01F7
:104E20009C0102501109210931090D3F110521058D
:104E3000310538F00E94A30D60E070E08CEA90E04C
:104E40001CC06E3F71058105910521F480E00E9430
:104E5000FE1122C0862F0E94DD0C8093B6028F3F88
:104E600031F060E00E94DE0F80E090E079CB0E949C
:104E7000A30D60E070E08CE990E00E94E6120CC0A7
:104E8000012B51F40E94A30D60E070E084E990E0F2
:104E90000E94E6120E94C412A89589B186FB992748
:104EA00090F981E089278093D6024090D2025090F9
:104EB000D3026090D4027090D502882379F04528FF
:104EC00046284728B1F50E94FE1C6093D2027093D9
:104ED000D3028093D4029093D5022BC04114510485
:104EE0006104710431F10E94FE1CDC01CB018419C4
:104EF0009509A609B709893E9340A105B10520F49B
:104F000081E00E947B070DC00E94FE1CDC01CB01EA
:104F100084199509A609B709893B9B40A105B105EC
:104F200040F01092D2021092D3021092D40210924A
:104F3000D5028091D70281115DC08091D80280FD99
:104F400059C08091CD059091CE05DC01ED91FC9189
:104F50000280F381E02D0995882309F44AC08CE38F
:104F6000898FE0E4F3E0DF011D928A95E9F7A895C7
:104F70008091CD059091CE05DC01ED91FC910280F0
:104F8000F381E02D09958823A1F18091CD059091C1
:104F9000CE05DC01ED91FC910480F581E02DA501A9
:104FA00060E473E00995882321F19701A601B1011E
:104FB000C4010E94711A182F8823D9F0898187FDB6
:104FC00018C09F898091CF05981304C0688D8D8982
:104FD0000E943D1A8D89988DE92FF0E0E353FA4F36
:104FE0002385821731F090933F03838711110E942C
:104FF0009507A8958091D70281112DC08091D80284
:10500000853049F509EC14E0F80180818823E9F046
:1050100085859685A785B0898F3F9F4FAF4FBF4F3E
:10502000A1F00E94EB0CD8011D964D905D906D9003
:105030007C905097DC01CB0184199509A609B7092A
:1050400089359240A105B10588F50C5C1F4FF5E04C
:105050000D3C1F07C9F68091D8028F5F0C94301F5A
:105060000E9497150C942F1F80939D020C944F1E45
:105070000E94A30D60E070E081E591E00E94880D40
:105080000E94E40D80E090E00E94850F023011053F
:1050900009F449CD01E010E046CD60939D020E94E5
:1050A000B9130E94051301E010E0CFCDA89583E26B
:1050B00094E00E945A0D8DE194E00E945A0D8BE31A
:1050C00090E00E94D319D8016C9170E080E090E0EC
:1050D00040E050E00E94C40D8CE290E00E94D319A1
:1050E000F801658576858785908940E050E00E94CB
:1050F000650F80E090E00E94850F8FEF9FEFDC014D
:10510000F80185879687A787B08B9FCF8830910558
:1051100011F40C945C1F8D30910511F40C94681FF0
:1051200021E02E0F2093D702F0E0E853FC4F80835C
:10513000E22FF0E0E853FC4F10820E94D319ACCE6E
:1051400010922F0410922E0488EE93E0A0E0B0E0BD
:105150008093300490933104A0933204B0933304CD
:1051600086E391E090932D0480932C0485EC90E0ED
:10517000909339048093380484EC90E090933B043E
:1051800080933A0480EC90E090933D0480933C043B
:1051900081EC90E090933F0480933E0482EC90E099
:1051A000909341048093400486EC90E090934304F4
:1051B00080934204109245041092460410924704D2
:1051C0001092480410923E0710923D07109240073B
:1051D00010923F07109242071092410788E491E035
:1051E00090933C0780933B071092DC061092DB06FD
:1051F0008FEF8093DD068093E3068093E4061092A0
:10520000E5061092E6061092E9061092E806109262
:10521000EB061092EA061092ED061092EC06109240
:10522000F0061092EF062BE337E03093F20620935E
:10523000F1069AE09093F3062CE531E03093DA061C
:105240002093D90692E09093F40694E09093F606AA
:105250008093F5068091D80629ED36E03093CE058F
:105260002093CD058093CF051092D0051092D105E3
:105270001092D2051092D3051092D40588EC90E0DC
:105280009093D6058093D50583E08093D70580E081
:1052900091E0E8EDF5E0DF019C011D9221503040E6
:1052A000E1F7E9ECF4E080E090E04FEF2FEF3FEF23
:1052B0001082128211821382148215821682178242
:1052C0001086118612861486138615861686178612
:1052D000108A118A128A138A148ADC01A753BB4FE1
:1052E00055961C925597168A178A108E118E138E1A
:1052F000128E148E158E168E178E10A211A212A267
:1053000013A294961C92949716A215A297961C929B
:10531000979710A611A612A613A69C964C939C973D
:1053200036A725A710AA17A612AA11AAD3961C92CF
:10533000C496F496843051E0950709F0B9CF0895EA
:10534000991B79E004C0991F961708F0961B881FD7
:105350007A95C9F78095089597FB072E16F4009467
:1053600007D077FD09D00E94C02907FC05D03EF484
:10537000909581959F4F0895709561957F4F089501
:10538000AA1BBB1B51E107C0AA1FBB1FA617B7076B
:1053900010F0A61BB70B881F991F5A95A9F7809587
:1053A0009095BC01CD010895EE0FFF1F0590F4917B
:1053B000E02D09940E94E1296894B1110C94A7355D
:1053C00008950E948C3588F09F5798F0B92F99273F
:1053D000B751B0F0E1F0660F771F881F991F1AF0E0
:1053E000BA95C9F714C0B13091F00E94A635B1E06A
:1053F00008950C94A635672F782F8827B85F39F069
:10540000B93FCCF3869577956795B395D9F73EF478
:1054100090958095709561957F4F8F4F9F4F089520
:1054200081E090E0F8940C946D36FB01DC0102C041
:1054300001900D9241505040D8F70895FB01DC01D6
:1054400001900D920020E1F70895FB01DC0141502D
:10545000504088F08D9181341CF08B350CF4805EC7
:10546000619161341CF06B350CF4605E861B611138
:1054700071F3990B0895881BFCCFFB01DC014150AF
:10548000504048F001900D920020C9F701C01D92D4
:1054900041505040E0F70895AEE0B0E0E2E5FAE2B6
:1054A0000C9435360D891E8986E08C831A83098316
:1054B0008FEF9FE79E838D83AE01475E5F4F6F89BD
:1054C000788DCE0101960E94DB322F813885F8015C
:1054D000E20FF31F10822E96E4E00C945136AEE0FA
:1054E000B0E0E5E7FAE20C94373685E08C838B89EF
:1054F0009C899A838983AE01495E5F4F6D897E895D
:10550000CE0101960E94082C2E96E2E00C945336B0
:1055100020FD09C0FC0123FD05C022FF02C07383EA
:10552000628351834083089544FD10C046FD10C03E
:10553000DB01FC01AA0FBB1FEE1FFF1F1094D1F768
:105540006A0F7B1F8E1F9F1F31E003C033E001C035
:1055500034E0660F771F881F991F3150D1F7620F13
:10556000711D811D911D08950F931F93CF93DF939C
:105570008C01C8010E94412DEC0197FD08C00E94DA
:105580007431892BB1F7B801CE010E947F2DCE0175
:10559000DF91CF911F910F910895A1E0B0E0E3ED6D
:1055A000FAE20C942D368C01C62E7A0129830E94D2
:1055B000412DAC01552729814B32510521F04D3247
:1055C000510569F42068CA94C11002C080E076C019
:1055D000C80129830E94412D298197FDF7CF322FE1
:1055E0003D7FD32E322F307349F5803339F5BB24FC
:1055F000BA94BC0C09F44EC0C80129830E94412D05
:10560000298197FD47C0382F3F7D383569F48D2DAE
:105610008264D82ECA94CA94CC20E1F1C8010E94B9
:10562000412D97FF0BC036C026FF04C02D2D2260F0
:10563000D22E03C03D2D3261D32ECB2C812C912C48
:10564000540120ED280F283080F0D4FE04C0B801AA
:105650000E947F2D1CC02A3040F0D6FEF8CF2F7D4F
:105660003FEE320F363098F727504D2DC501B4016B
:105670000E94942A4B015C018D2D8260D82ECA9421
:10568000CC2059F0C8010E94412D97FFDACFD1FC00
:1056900004C09CCF812C912C5401D7FE08C0B0943B
:1056A000A09490948094811C911CA11CB11C2D2D60
:1056B000B501A401C7010E94882A81E02196ECE08F
:1056C0000C944936A1E2B0E0E8E6FBE20C942B36FC
:1056D0005C017A01CE0101966C0180E2F601119223
:1056E0008A95E9F7F501838040E050E0912C712C18
:1056F00070E0A1E0B0E0F90183FC859183FE819127
:105700008F01982F9F01811103C080E090E07CC041
:105710008E3519F44115510549F1E72FF0E0E417F2
:10572000F5073CF48D3559F18D3219F4772001F1EC
:1057300003C0711001C0982E892F86958695869595
:105740008601080F111D892F87703D0101C0660C6D
:105750008A95EAF7F801808186298083991559F0A6
:10576000991510F49F5FE8CF9150E6CF71E004C027
:105770007724739401C0712C4F5F5F4FBCCF7720AB
:1057800019F08E8180628E83711103C099249394E5
:1057900016C0F6019E012F5D3F4F80818095819359
:1057A000E217F307D1F7F2CFE114F10429F0F70182
:1057B0008083C70101967C016150912CF9F0C501ED
:1057C00069A30E94412D69A197FD16C0282F269537
:1057D00026952695F601E20FF11D208130E0AC01FF
:1057E0004770552702C0359527954A95E2F720FD69
:1057F000DBCFB5010E947F2D911087CFE114F1041A
:1058000011F0F7011082C801A196EEE00C94473622
:105810004F925F927F928F929F92AF92BF92CF9260
:10582000DF92EF92FF920F931F93CF93DF931F921C
:10583000CDB7DEB76C012B015A01FC01178216822D
:10584000712CF601F380F201F3FC8591F3FE819156
:10585000382F2F01882309F4F3C090E039830E9488
:1058600074313981892B21F0C6010E94B42AE9CF15
:10587000353241F4F201F3FC3591F3FE31912F0101
:10588000353269F4C60139830E94412D398197FD73
:10589000D5C03817B1F2B6010E947F2DD1C03A327F
:1058A00039F4F3FC3591F3FE31912F0151E001C041
:1058B00050E0420110E020ED230F2A3090F45260B6
:1058C000612F70E080E090E040E259830E94942ACA
:1058D000162FF401F3FC3591F3FE31914F015981FC
:1058E000EACF052F232F240151FF03C0111102C05D
:1058F000A7C01FEF383619F03C3659F011C0F4013B
:10590000F3FC2591F3FE21912F01283649F4052F50
:1059100008600460F201F3FC2591F3FE21912F0150
:10592000222309F48DC0622F70E08EE498E0298371
:105930000E94362D2981892B09F482C000FD07C001
:10594000F501E080F180C50102965C0102C0E12C06
:10595000F12C2E3651F4F6014681578160E070E05B
:10596000202FC7010E94882A6CCF233691F401FFB3
:1059700011E0C6010E94412D97FD60C0E114F104C1
:1059800029F0F7018083C70101967C01115089F746
:1059900051C02B3559F49201A701612FC6010E9415
:1059A000622B2C01892B09F045C03FC0C601298319
:1059B0000E94B42A298197FD41C02F3659F128F45D
:1059C000243631F1293649F127C0233769F02537CC
:1059D000F9F022C0E114F10429F0F7018082C70137
:1059E00001967C01115071F0C6010E94412D4C01BD
:1059F00097FD08C00E947431892B61F3B601C40180
:105A00000E947F2DE114F104A9F0F701108212C069
:105A1000006203C0006101C00064202FA701612F54
:105A2000C6010E94CD2A811105C0F60183818073D1
:105A300029F406C000FD05CF739403CF772019F039
:105A4000872D90E002C08FEF9FEF0F90DF91CF91F5
:105A50001F910F91FF90EF90DF90CF90BF90AF908C
:105A60009F908F907F905F904F900895FC010590DC
:105A7000061621F00020D9F7C00108953197CF0113
:105A80000895CF93DF93EC012B8120FF33C026FFD5
:105A90000AC02F7B2B838E819F8101969F838E83EB
:105AA0008A8190E029C022FF0FC0E881F9818081BE
:105AB000082E000C990B009719F420622B831AC052
:105AC0003196F983E8830EC0EA85FB85099597FF37
:105AD00009C02B81019611F080E201C080E1822B88
