:100000000C944C040C94E21A0C94BB1A0C947604D5
:100010000C9476040C9476040C9476040C94760478
:100020000C9476040C9476040C9476040C94760468
:100030000C9476040C9476040C9476040C94760458
:100040000C94041D0C9476040C94C9050C94A3051F
:100050000C9476040C9476040C9476040C94760438
:100060000C9476040C9476043000203E20002E0080
:100070002E002E002000B404AE04A10393048E04CD
:1000800076044804360420040604BC03436D6473FC
:100090003A20003D003A003A0020002D002D005487
:1000A000696D653D005570647420524F4D004D736D
:1000B000674D6772206661696C00526164696F20E8
:1000C000496E6974006C6173745F727373693D008B
:1000D000705F6C65645F74696D653D00705F6C6531
:1000E000645F726174653D006C6173745F63757207
:1000F000725F76616C3D006C6173745F6D74725FEA
:1001000076616C3D006C6173745F6D657465725FE0
:10011000656E7472795F66696E6973683D006D74AF
:10012000725F696D705F7065725F6B77683D006DBF
:1001300074725F696E74657276616C3D006C617398
:10014000745F636C6F636B5F64726966743D0077A4
:1001500068656E5F6C6173745F7365656E3D0066A4
:100160007265655F72616D3D00736C6565705F748B
:10017000696D653D0075705F74696D653D00626114
:1001800074745F763D006E6F64655F69643D004D19
:1001900055505F004D55504300474D53472C424F3B
:1001A0004F5400474D5347003A20617272617920E5
:1001B00066756C6C0043616E277420616464206E08
:1001C0006F646520004D524542003A2000556E6B29
:1001D0006E6F776E206D73672066726F6D206E6F25
:1001E000646520003A2000476F7420626361737475
:1001F0002066726F6D206E6F646520005052535000
:1002000000505245510053656E74206E6F2D6F7013
:1002100020284D4E4F492920746F206E6F64652051
:10022000004D4E4F490053656E74206D65746572C4
:100230002075706461746520696E737420284D5058
:100240004C492920746F206E6F646520004D504C1E
:10025000490053656E74206D6574657220696E7413
:100260002075706461746520696E737420284D492F
:100270004E492920746F206E6F646520004D494EF1
:10028000490053656E74206D657465722076616CEB
:100290002075706461746520696E737420284D56F2
:1002A00041492920746F206E6F646520004D5641CE
:1002B000490053656E742047494E5220706F6C6C34
:1002C000207261746520696E6372656173652028B0
:1002D000474954522920746F206E6F64652000478F
:1002E000495452004C617374205253534920617435
:1002F000206E6F64653D0047494E52004D55505F7A
:10030000004D555043004D524542002E205253534C
:1003100049203D2000476F74206D73673A2000200C
:10032000554E0020504F002045580020424F0020DD
:10033000574400525F464C4720307800524F4D20C2
:10034000426164005265616420524F4D0047544938
:100350004D450052544320496E697400474D534740
:10036000003D424F4F543D0042616420436D6400A4
:100370004E6F646520697320756E6B6E6F776E00CB
:10038000426164204E6F64652049642028322D321A
:1003900035332C2032353420666F7220616C6C2925
:1003A0000044554D504E00456E74727920416C6783
:1003B0006E3D0042616420454E544100454E54411B
:1003C000003D004C617374205353492040204E6F10
:1003D000646520002066726F6D206E6F646520007A
:1003E0004C61737420535349204020477761793D15
:1003F00000545820506F773D0042616420545820CB
:10040000506F7765720054585057004777617920D4
:1004100049643D0042616420477761792049640066
:1004200047574944004E65742049643D0042616469
:100430002041646472004E455449004B65793D008B
:10044000426164204B657900454B4559004C6F670C
:100450004C65763D00426164204C6F674C657600C8
:10046000444542554700494E464F005741524E00C1
:100470004552524F52004C4F474C00202F20005401
:10048000696D653D004261642054696D65005449A1
:100490004D45005243464700467265652052414D26
:1004A000202842293D00426F6F7465643D00445529
:1004B0004D50470048454C50002057680042616449
:1004C0002053657269616C204D6573736167653A8D
:1004D000200073007320666F7220002C20002E20F5
:1004E0004E6F64653D004261642047494E5220666C
:1004F00061737420706F6C6C2073767220696E73F8
:10050000740053474954525F4E41434B0053657446
:100510002047494E52206661737420706F6C6C20C6
:1005200073767220696E73740053474954525F4169
:10053000434B005347495452002C204E6577207698
:10054000616C7565202873293D002E204E6F64650F
:100550003D00426164206D6574657220696E74654A
:100560007276616C2073767220696E737400534DDD
:10057000494E545F4E41434B00536574206D657482
:10058000657220696E74657276616C206F6E20737F
:10059000767220696E737400534D494E545F414327
:1005A0004B00534D494E54002C2074696D65202832
:1005B0006D73293D002C206D657465722070756C1B
:1005C00073652070657220666C6173683D002E2033
:1005D0004E6F64653D0042616420736574206D65F3
:1005E000746572204C45442073767220696E737472
:1005F0000053504C45445F4E41434B0053657420BB
:100600006D65746572204C4544206F6E2073767260
:1006100020696E73740053504C45445F41434B0056
:1006200053504C4544002C204E65772076616C7504
:10063000653D002E204E6F64653D0042616420736D
:100640006574206D6574657220696E737400534D16
:1006500056414C5F4E41434B00536574206D6574A9
:100660006572206F6E2073767220696E737400530A
:100670004D56414C5F41434B00534D56414C004752
:100680004E4F534E41505F4E41434B004E4F534EE1
:10069000415000474E4F534E4150004757534E4133
:1006A0005000474757534E41500042616420535415
:1006B000494D452066726F6D2073657276657200D4
:1006C0005354494D455F4E41434B0053657420746C
:1006D000696D65206F6E2073767220696E73743D4C
:1006E000005354494D455F41434B005354494D45D8
:1006F000004E4441524B00473E533A000000000078
:10070000240027002A000102040810204080010272
:100710000408102001020408102004040404040446
:100720000404020202020202030303030303003E65
:10073000800052F4F4D0003415004FF4F4D0001AC5
:100740000B009DF4F4D0000D05013BF4F4D000063D
:10075000830275F3F3D000034104EAF2F2D0000201
:100760002C07AEE2E2D00001000800E1E1D0000079
:10077000801000E0E0D000024003334242D0013E4E
:10078000800052F4F5D0013415004FF4F4D0011A72
:100790000B009DF4F4D0010D05013BF4F4D00106EB
:1007A000830275F3F3D001034104EAF2F2D00102AF
:1007B0002C07AEE2E2D00101000800E1E1D0010027
:1007C000801000E0E0D001024003334242D0087DB7
:1007D0000000108888D008682B0010F1F1D0083490
:1007E000150010F5F5D0081A0B0010F4F4D0080D20
:1007F000050010F3F3D00806830010F2F2D00803CE
:10080000E80010E2E2D053656E64206661696C3ADC
:10081000200053656E64696E673A20004D7367204F
:10082000746F6F206C6F6E673A2000533E473A003A
:1008300000000000250028002B0000000008000236
:1008400001000003040700000000000000006364D2
:10085000696E6F70737578585B004E414E494E4912
:100860005459494E46CDCCCC3D0AD7233C17B7D17D
:100870003877CC2B329595E6241FB14F0A00002023
:10088000410000C84200401C4620BCBE4CCA1B0EA2
:100890005AAEC59D74009A2820924C0711241FBEA1
:1008A000CFEFD8E0DEBFCDBF12E0A0E0B1E0E2EDD7
:1008B000FCE602C005900D92AE38B107D9F727E0EB
:1008C000AEE8B2E001C01D92AC34B207E1F714E02B
:1008D000CCE4D4E004C02197FE010E94CE29CB34A1
:1008E000D107C9F70E944E1D0C9467360C94000086
:1008F000CF92DF92EF92FF920F931F93CF93DF93EC
:100900006C017A018B01C0E0D0E0CE15DF0589F0E3
:10091000D8016D918D01D601ED91FC910190F0818E
:10092000E02DC6010995892B11F47E0102C02196A4
:10093000ECCFC701DF91CF911F910F91FF90EF9006
:10094000DF90CF900895089580E090E00895FC0135
:10095000538D448D252F30E0842F90E0821B930B24
:10096000541710F0CF96089501970895FC01918DCA
:10097000828D981761F0828DDF01A80FB11D5D9601
:100980008C91928D9F5F9F73928F90E008958FEF6F
:100990009FEF0895FC01918D828D981731F0828D23
:1009A000E80FF11D858D90E008958FEF9FEF08957A
:1009B000FC01918D228D892F90E0805C9F4F821BDE
:1009C00091098F739927089584E294E00E94D804D6
:1009D00021E0892B09F420E0822F0895FC01848D09
:1009E000DF01A80FB11DA35ABF4F2C91848D90E059
:1009F00001968F739927848FA689B7892C93A08934
:100A0000B1898C9180648C93938D848D981306C0EA
:100A10000288F389E02D80818F7D80830895EF9295
:100A2000FF920F931F93CF93DF93EC0181E0888FA8
:100A30009B8D8C8D981305C0E889F989808185FD8F
:100A400024C0F62E0B8D10E00F5F1F4F0F73112780
:100A5000E02E8C8DE8120CC00FB607FCFACFE889A7
:100A6000F989808185FFF5CFCE010E94EE04F1CF98
:100A70008B8DFE01E80FF11DE35AFF4FF0820B8FC3
:100A8000EA89FB898081806207C0EE89FF896083E3
:100A9000E889F98980818064808381E090E0DF913A
:100AA000CF911F910F91FF90EF900895CF93DF9317
:100AB000EC01888D8823C9F0EA89FB89808185FD56
:100AC00005C0A889B9898C9186FD0FC00FB607FCB7
:100AD000F5CF808185FFF2CFA889B9898C9185FFF8
:100AE000EDCFCE010E94EE04E7CFDF91CF910895C4
:100AF00080E090E0892B29F00E94E40481110C949D
:100B0000000008950E940A2AEF92FF920F931F930C
:100B1000CF93DF931F92CDB7DEB78C017B01FB0132
:100B2000608169830E94A7356981681719F0C8013F
:100B30000E94AF35C7010F90DF91CF911F910F91A8
:100B4000FF90EF9008951F920F920FB60F9211240D
:100B50002F933F934F935F936F937F938F939F93C5
:100B6000AF93BF93EF93FF9384E294E00E94EE046F
:100B7000FF91EF91BF91AF919F918F917F916F9175
:100B80005F914F913F912F910F900FBE0F901F904B
:100B900018951F920F920FB60F9211242F938F93D7
:100BA0009F93EF93FF93E0913404F091350480819B
:100BB000E0913A04F0913B0482FD12C09081809153
:100BC0003D048F5F8F7320913E04821751F0E091B6
:100BD0003D04F0E0EC5DFB4F958F80933D0401C038
:100BE0008081FF91EF919F918F912F910F900FBE78
:100BF0000F901F901895CF93DF93EB010E94A735BC
:100C00008883CE01DF91CF910895CF93DF93D82FC2
:100C1000C1E0DC1788F05C9A64EF71E080E090E05E
:100C20000E94041C5C986AEF70E080E090E00E94F3
:100C3000041CA895CF5FEDCFDF91CF910895E1EC33
:100C4000F4E090E02081281731F09F5FF496953012
:100C5000C9F78FEF0895892F0895CF92DF92EF9211
:100C6000FF920E943E1C28EE33E040E050E00E94DC
:100C7000CD352093A7023093A8024093A902509348
:100C8000AA02C090B302D090B402E090B502F090F6
:100C9000B6028091B7029091B802A091B902B091CA
:100CA000BA022C153D054E055F0518F40197A10900
:100CB000B1098C199D09AE09BF09BC01CD01620FB4
:100CC000731F841F951FFF90EF90DF90CF900895C2
:100CD0000F931F93CF93DF938C01EB0186EA92E091
:100CE0000E948B3163E970E086EA92E00E948031D5
:100CF000E6EAF2E001900020E9F73197AF01465AA9
:100D0000524066EA72E0C8010E941F2A892B69F0EE
:100D1000CE010E949231AC01BE01C8010E949B31FC
:100D200021E0892B19F020E001C022E0822FDF9121
:100D3000CF911F910F910895BC0188EE93E00E941E
:100D40008B3188EE93E00C946818CF93009701F1F3
:100D5000C62F8130910519F480E794E010C08230ED
:100D6000910519F48BE694E00AC08330910519F4DB
:100D700086E694E004C0049721F480E694E00E94A3
:100D80009C06CC2329F088E891E0CF910C94681858
:100D9000CF910895CF93DF93209102013091030109
:100DA000261737077CF09B01EC0180910001882316
:100DB00021F061E0C9010E94A506CE010E947F18C2
:100DC00010920001DF91CF91089560E070E08AE613
:100DD00090E00C94CA06CF93DF93209102013091EA
:100DE0000301261737077CF09B01EC01809100017D
:100DF000882321F061E0C9010E94A506CE010E946E
:100E0000681810920001DF91CF910895CF93DF937E
:100E1000EA019F938F937F936F938BE891E09F9369
:100E20008F938AE992E09F938F930E94462A8DB711
:100E30009EB708960FB6F8949EBF0FBE8DBFBE0139
:100E40008AE992E0DF91CF910C94EB066091F10278
:100E500070E080E090E040E050E00E94060760E033
:100E600070E082E790E00E94CA066091F00270E0B4
:100E700080E090E040E050E00E94060760E070E013
:100E800080E790E00E94CA066091EF0270E080E087
:100E900090E040E050E00E94060760E070E08EE6DF
:100EA00090E00E94CA066091EE0270E080E090E05F
:100EB00040E050E00C940607CF93DF93EC010A97D3
:100EC00034F460E070E088E690E00E94CA06BE015B
:100ED000DD0F880B990B40E050E0DF91CF910C942F
:100EE00006072F923F924F925F926F927F928F925E
:100EF0009F92AF92BF92CF92DF92EF92FF920F93A9
:100F00001F93CF93DF93CDB7DEB728970FB6F89432
:100F1000DEBF0FBECDBF2091020130910301241727
:100F200035070CF4FBC02CE3C22ED12CE12CF12CA4
:100F3000A70196010E94CD3569837A838B839C83B8
:100F4000CA01B901A70196010E94CD352B013C01D0
:100F5000CA01B90128E130E040E050E00E94CD35FF
:100F600069017A016D837E838F839887812C912C10
:100F7000540120E0E0E9F1E0022F10E00E54184F98
:100F8000180133E0232233242114310491F4C801E1
:100F900064E670E00E94A629892B31F4C801BF01E4
:100FA0000E94A629892B29F48EE691E0A0E0B0E00A
:100FB00004C08DE691E0A0E0B0E0880E991EAA1E64
:100FC000BB1ED501C401AA27BB27C816D906EA064D
:100FD000FB0610F02F5FD0CF2114310499F4C80123
:100FE00064E670E00E94A629892B39F4C80160E903
:100FF00071E00E94A629892B29F48EE691E0A0E0F9
:10100000B0E004C08DE691E0A0E0B0E0A50194015D
:10101000281B390B4A0B5B0BC21AD30AE40AF50AE8
:10102000C80164E670E00E94A6299C01C80160E93D
:1010300071E00E94A629E2E1F1E0B12C41E0B41296
:1010400009C02114310451F42115310529F4009708
:1010500029F402C0408103C04DE101C04CE150E0E1
:1010600060E070E0C416D506E606F70648F0C41A3C
:10107000D50AE60AF70AB39431965CE0B512DECFE2
:10108000C8010E945C0760E070E08DE990E00E947A
:10109000CA0681E08B0D90E00E945C0760E070E082
:1010A0008BE990E00E94CA0681E08C0D90E00E94DE
:1010B0005C0760E070E089E990E00E94CA068D81DB
:1010C0009E810E945C0760E070E087E990E00E94EA
:1010D000CA06C2010E945C0760E070E085E990E00A
:1010E0000E94CA0689819A8128960FB6F894DEBFBD
:1010F0000FBECDBFDF91CF911F910F91FF90EF9069
:10110000DF90CF90BF90AF909F908F907F906F9027
:101110005F904F903F902F900C945C0728960FB6ED
:10112000F894DEBF0FBECDBFDF91CF911F910F911D
:10113000FF90EF90DF90CF90BF90AF909F908F90F7
:101140007F906F905F904F903F902F900895CF9336
:10115000DF93EA019F938F937F936F938EE991E0E2
:101160009F938F938EE892E09F938F930E94462ADD
:101170008DB79EB708960FB6F8949EBF0FBE8DBF71
:10118000BE018EE892E0DF91CF910C94EB062091A6
:10119000020130910301281739073CF08FE891E0F4
:1011A0000E94681881E0809300010895CF92DF9239
:1011B000EF92FF921F93CF93DF93CDB7DEB7A19746
:1011C0000FB6F894DEBF0FBECDBF182F60E070E001
:1011D00083E393E00E94CA06C12ED12CE12CF12CAE
:1011E00019A2CE018196B701A6014F705527662737
:1011F000772724E0F694E794D794C7942A95D1F7FB
:1012000001974A3051056105710510F4405D01C038
:10121000495CFC014083C114D104E104F10419F7D5
:101220000E94681813FF07C060E070E08FE293E04F
:101230000E94CA06177F12FF07C060E070E08BE2D1
:1012400093E00E94CA061B7F11FF07C060E070E0B8
:1012500087E293E00E94CA061D7F10FF07C060E08E
:1012600070E083E293E00E94CA061E7F112331F0F2
:1012700060E070E08FE193E00E94CA0680E090E0B9
:101280000E94C708A1960FB6F894DEBF0FBECDBF6F
:10129000DF91CF911F91FF90EF90DF90CF90089555
:1012A000CF93C82FA89587EF96E00E949C0683EA0B
:1012B00091E00E949C068BE390E00E947A186C2FCC
:1012C00070E080E090E040E050E00E9406078CE291
:1012D00090E00E947A1860E070E084E793E00E945A
:1012E000EB0680E290E00E947A1869E971E084E7F9
:1012F00093E00E9468068823C1F087E093E09F9303
:101300008F9382E991E09F938F9384E793E09F937B
:101310008F930E94692A809107030E94D6080F903C
:101320000F900F900F900F900F9080E090E0CF9172
:101330000C94C7088F929F92AF92BF92EF92FF9248
:101340000F931F93CF93DF9300D01F92CDB7DEB7DB
:10135000082F162F19821A821B82662359F064EC1B
:1013600071E0CE0101960E94182A8BE390E00E9462
:101370007A180EC06FE871E0CE0101960E94182A1B
:101380000E94E50660E070E086E891E00E94CA06EF
:10139000E02EF12C84E3089FF0011124EF53FB4F62
:1013A000608170E080E090E040E050E00E9406073D
:1013B000CE0101960E946818111108C00E94E5062E
:1013C00060E070E08EE791E00E94CA0684E38E9DA3
:1013D000F0018F9DF00D1124EF53FB4F618172815D
:1013E00080E090E040E050E00E94A708CE01019626
:1013F0000E946818111108C00E94E50660E070E0C4
:1014000085E791E00E94CA0684E38E9DF0018F9DDE
:10141000F00D1124EF53FB4F638174818581968118
:1014200040E050E00E94A708CE0101960E94681893
:10143000111108C00E94E50660E070E089E691E0C5
:101440000E94CA0684E38E9DF0018F9DF00D112449
:10145000EF53FB4F678170858185928540E050E0B6
:101460000E94A708CE0101960E946818111108C0B9
:101470000E94E50660E070E08FE591E00E94CA06F8
:1014800084E38E9DF0018F9DF00D1124EF53FB4FEF
:101490006385748580E090E040E050E00E94A708FA
:1014A000CE0101960E946818111108C00E94E5063D
:1014B00060E070E08FE491E00E94CA0684E38E9DB4
:1014C000F0018F9DF00D1124EF53FB4F658576855C
:1014D0008785908940E050E00E94A708CE010196E0
:1014E0000E946818111108C00E94E50660E070E0D3
:1014F0008DE391E00E94CA0684E38E9DF0018F9DEA
:10150000F00D1124EF53FB4F61897289838994890F
:1015100040E050E00E940607CE0101960E94681844
:10152000111108C00E94E50660E070E08FE291E0D2
:101530000E94CA0684E38E9DF0018F9DF00D112458
:10154000EF53FB4F658970E080E090E040E050E0B1
:101550000E940607CE0101960E946818111108C06A
:101560000E94E50660E070E08EE191E00E94CA060C
:1015700084E38E9DF0018F9DF00D1124EF53FB4FFE
:10158000628D738D80E090E040E050E00E94A708FB
:10159000CE0101960E946818111108C00E94E5064C
:1015A00060E070E085E091E00E94CA0684E38E9DD1
:1015B000F0018F9DF00D1124EF53FB4F6689778961
:1015C000808D918D40E050E00E94A708CE010196E9
:1015D0000E946818111108C00E94E50660E070E0E2
:1015E00087EF90E00E94CA0684E38E9DF0018F9DF4
:1015F000F00D1124EF53FB4F648D758D868D978D03
:1016000040E050E00E94A708CE0101960E946818B1
:10161000111108C00E94E50660E070E088EE90E0DD
:101620000E94CA0684E38E9DF0018F9DF00D112467
:10163000EF53FB4F80A091A0A2A0B3A020E030E028
:1016400048EC52E4C501B4010E9468320E94D429DA
:10165000CB0164E670E00E94A6299F938F93C50199
:10166000B4010E94D4297F936F9382EA91E09F9303
:101670008F938BEB92E09F938F930E94462A60E0BA
:1016800070E08BEB92E00E94EB06CE0101960E9487
:1016900068180FB6F894DEBF0FBECDBF111108C099
:1016A0000E94E50660E070E08CED90E00E94CA06C2
:1016B00084E38E9DF0018F9DF00D1124EF53FB4FBD
:1016C00064A170E080E090E040E050E00E940607F6
:1016D000CE0101960E946818111108C00E94E5060B
:1016E00060E070E080ED90E00E94CA0684E38E9D89
:1016F000F0018F9DF00D1124EF53FB4F65A176A1F2
:1017000080E090E040E050E00E94A708CE01019602
:101710000E946818111108C00E94E50660E070E0A0
:1017200085EC90E00E94CA0684E38E9DF0018F9DB7
:10173000F00D1124EF53FB4F63A9062E000C770B1D
:10174000880B990B40E050E00E940607111104C07D
:1017500080E090E00E94C7080F900F900F90DF91FB
:10176000CF911F910F91FF90EF90BF90AF909F90FE
:101770008F9008950F931F93CF93DF93D82F01EC91
:1017800014E0C0E0F8018081882341F06D2F8C2F98
:101790000E949A0980E090E00E94C708CF5F0C5C2D
:1017A0001F4FC53079F7DF91CF911F910F910895A9
:1017B0008F929F92AF92BF92CF92DF92EF92FF9261
:1017C000CF93DF934B015C016093B7027093B80233
:1017D0008093B9029093BA020E943E1C28EE33E037
:1017E00040E050E00E94CD352093B3023093B40224
:1017F0004093B5025093B602C0900303D090040307
:10180000E0900503F090060381E8C81686E4D80648
:1018100088E6E80688E5F80608F04DC080920303E4
:1018200090920403A0920503B09206038FEF9FEFFE
:10183000DC018093CE049093CF04A093D004B093A6
:10184000D1048093020590930305A0930405B093FF
:1018500005058093360590933705A0933805B0931E
:10186000390580936A0590936B05A0936C05B0933E
:101870006D0580939E0590939F05A093A005B0935E
:10188000A10564E070E08FE990E00E94CA060E9422
:101890002D0644E050E00E94710784E090E0DF9163
:1018A000CF91FF90EF90DF90CF90BF90AF909F903F
:1018B0008F900C94C7080E942D06C80CD91CEA1CF6
:1018C000FB1CC61AD70AE80AF90AD701C601C0925A
:1018D000AB029093AC02A093AD02B093AE02109213
:1018E000AF021092B0021092B1021092B202C092F6
:1018F0000303D0920403E0920503F092060396CF0F
:10190000CF93DF930E94E50660E070E08CE890E002
:101910000E94CA06C6E7D0E0FE01859194910E941C
:101920009C0660E070E084E790E00E94CA06229680
:1019300080E0CC38D80781F780E090E0DF91CF914C
:101940000C94C7080F931F93CF93DF938C01EB0187
:101950008091020190910301861797075CF08091B6
:101960000001882321F061E0CE010E94A506C80194
:101970000E947F18CE01DF91CF911F910F910C949F
:10198000C7081F93CF93DF93CDB7DEB728970FB665
:10199000F894DEBF0FBECDBF64E070E08AEB90E04C
:1019A0000E94A20C8091C5059091C605DC01ED91C5
:1019B000FC910190F081E02D0995882309F48BC0FA
:1019C0008091C7050E94C5188091D0060E94C51855
:1019D00080E293E09093CE058093CD0548E050E0FF
:1019E00066E677E0CE0101960E947731BE016F5F17
:1019F0007F4F81ED96E00E94561744EE67E081ED3F
:101A000096E00E94DF1440EC68E081ED96E00E94D1
:101A1000DF1440E069E081ED96E00E94DF148091E0
:101A2000F2028E3F0CF48EEF8093F0064091F006A8
:101A30004E3024F44E5E4F71406407C042311CF0BA
:101A4000455F4F7101C0425F406661E181ED96E004
:101A50000E94DF148091F10289838091F0028A83D1
:101A60008091EF028B838091EE028C836EE281ED98
:101A700096E00E943015182F24E0AE014F5F5F4FB3
:101A80006FE281ED96E00E949114412F477C4869F6
:101A90006EE281ED96E00E94DF1420E143EF52E018
:101AA0006EE381ED96E00E9491146DE381ED96E086
:101AB0000E943015482F41606DE381ED96E00E9451
:101AC000DF1428960FB6F894DEBF0FBECDBFDF91AE
:101AD000CF911F91089561E070E08EEA90E00E943E
:101AE000A20C72CF0F931F93CF93DF931F92CDB7AA
:101AF000DEB763E070E085EA90E00E94A20CA89552
:101B0000809102018983BE016F5F7F4F80E090E08A
:101B10000E94840562EF72E081E090E00E948405FB
:101B200060ED76E082E090E00E94840561EF72E073
:101B300083E090E00E94840560EF72E084E090E032
:101B40000E9484056FEE72E085E090E00E948405BB
:101B50006EEE72E086E090E00E948405A89507E0B2
:101B600010E0B80164517D4FC8010E9484050F5FE9
:101B70001F4F07311105A9F76BEE72E087E190E086
:101B80000E9484050F90DF91CF911F910F910895CE
:101B900084E090E0909303018093020184E18093BC
:101BA000F20281E08093D0061092F1021092F002CE
:101BB0008093EF028093EE0290E1EEE1F1E0A3EF7B
:101BC000B2E001900D929A95E1F78093EB020E94AA
:101BD000720D0C94C10CCF93DF93EB01BC01990FF4
:101BE000880B990BAE010E940607CE01DF91CF91C1
:101BF0000C94C7080F931F93CF93DF93209102019A
:101C00003091030126173707A4F0EB018C01809176
:101C10000001882321F061E0CE010E94A506C801E1
:101C20000E946818CE01DF91CF911F910F910C9403
:101C3000C708DF91CF911F910F9108951F93CF9304
:101C4000DF931F92CDB7DEB7182FA89587EF96E0E8
:101C500069830E949C066981611103C08FE891E04D
:101C600002C084E991E00E949C068BE390E00E9410
:101C70007A18612F70E080E090E040E050E00E9430
:101C800006078CE290E00E947A1860E070E084E73A
:101C900093E00F90DF91CF911F910C94FA0D0F9369
:101CA0001F93CF93DF93A8958091DF068093ED0279
:101CB00064E070E085E193E00E94CA0664E070E0B1
:101CC00088E393E00E94EB0664E070E08BE093E031
:101CD0000E94CA068091ED0264E070E0082E000CBC
:101CE000990B0E94EB0D63E672E084E793E00E949B
:101CF000182A68E373E084E793E00E94182AC091F1
:101D000037038C2F0E941F068093C7028F3F59F51F
:101D1000E1ECF4E020E030E0808181110AC084E34E
:101D2000829FF001839FF00D1124EF53FB4FC0837E
:101D30001CC02F5F3F4FF4962530310569F761E0F5
:101D400070E085EB91E00E94CA066C2F70E080E0A5
:101D500090E041E050E00E94060761E070E088EA10
:101D600091E00E94A20C2091C7022093EA022F3F2B
:101D700009F4D8C4C22FD0E00E942D0614E31C9FA2
:101D8000F0011D9FF00D1124EF53FB4F65877687FF
:101D90008787908B8091ED0283AB66E073E084E7E8
:101DA00093E00E946806813009F043C0E091EA02A6
:101DB0001E9FF0011124CF0183529B4F9F938F935D
:101DC000E952FB4FFF93EF938AEA91E09F938F9341
:101DD00084E793E09F938F930E94692AC091370311
:101DE000A89587EF96E00E949C0685EC91E00E9402
:101DF0009C068BE390E00E947A186C2F70E080E0E4
:101E000090E040E050E00E9406078CE290E00E94E3
:101E10007A1860E070E084E793E00E94FA0D2DB735
:101E20003EB7285F3F4F0FB6F8943EBF0FBE2DBFA1
:101E30006FC461E073E084E793E00E94680681303C
:101E400009F0DEC088EE93E09F938F9387EB91E0DB
:101E50009F938F9384E793E09F938F930E94692AC7
:101E600063EC71E088EE93E00E94B3319093E90255
:101E70008093E8021092E7021092E3021092E402CB
:101E80001092E5021092E6020F900F900F900F90C3
:101E90000F900F90C3E0E091E802F091E9023097D3
:101EA00009F480C02091E7022F5F2093E7022130E0
:101EB00081F440E050E060E070E0CF010E945C30CF
:101EC0006093DF027093E0028093E1029093E2025C
:101ED0005EC0223081F440E050E060E070E0CF016D
:101EE0000E945C306093E3027093E4028093E50209
:101EF0009093E6024CC0822F6C2F0E949A29911178
:101F00000EC060E070E0CF010E94EE2D6093DB0216
:101F10007093DC028093DD029093DE0238C040E0D3
:101F200050E060E070E0CF0120FD19C00E945C30FD
:101F30000091E3021091E4022091E5023091E60263
:101F4000DC01CB01800F911FA21FB31F8093E3021E
:101F50009093E402A093E502B093E60218C00E94B9
:101F60005C300091DF021091E0022091E10230919B
:101F7000E202DC01CB01800F911FA21FB31F8093EF
:101F8000DF029093E002A093E102B093E20263ECDF
:101F900071E080E090E00E94B3319093E902809379
:101FA000E80279CFE091EA0234E3E39FF0011124E3
:101FB000EF53FB4F8091DF029091E002A091E1028C
:101FC000B091E202868B978BA08FB18F8091E30254
:101FD0009091E402A091E502B091E602848F958F82
:101FE000A68FB78F8091DB029091DC02A091DD0279
:101FF000B091DE0280A391A3A2A3B3A361E0BAC013
:102000006CEF72E084E793E00E946806813009F08B
:10201000B6C088EE93E09F938F9386EC91E09F93F8
:102020008F9384E793E09F938F930E94692A63ECD8
:1020300071E088EE93E00E94B3319093DA028093CE
:10204000D9021092D8021092D4021092D5021092A6
:10205000D6021092D7020F900F900F900F900F9012
:102060000F908091D9029091DA02009709F461C033
:102070002091D8022F5F2093D80240E050E060E02A
:1020800070E0213059F40E945C306093D00270936C
:10209000D1028093D2029093D30240C0223059F4EF
:1020A0000E945C306093D4027093D5028093D60274
:1020B0009093D70233C020FD19C00E945C3000917C
:1020C000D4021091D5022091D6023091D702DC01C2
:1020D000CB01800F911FA21FB31F8093D402909356
:1020E000D502A093D602B093D70218C00E945C30EC
:1020F0000091D0021091D1022091D2023091D302EE
:10210000DC01CB01800F911FA21FB31F8093D0026F
:102110009093D102A093D202B093D30263EC71E00A
:1021200080E090E00E94B3319093DA028093D9026C
:1021300098CFE091EA0284E3E89FF0011124EF5385
:10214000FB4F8091D0029091D102A091D202B09128
:10215000D302868B978BA08FB18F8091D402909100
:10216000D502A091D602B091D702848F958FA68F09
:10217000B78F60E0809137030E941E0EC9C267EFDF
:1021800072E084E793E00E946806813009F0F9C1AB
:102190008091EA02189FC00111249C0125523B4FF7
:1021A0003F932F939C012A523B4F3F932F939C01C7
:1021B0002A513B4F3F932F939C012B513B4F3F9311
:1021C0002F932CEE32E03F932F939C0124533B4FEF
:1021D0003F932F939C0128533B4F3F932F939C0198
:1021E0002C533B4F3F932F938E539B4F9F938F9333
:1021F00082ED91E09F938F93C4E7D3E0DF93CF9379
:102200000E94692A63E070E084EE92E00E94CA06B0
:102210008091EC0263E070E0082E000C990B0E94A4
:10222000EB0D8091EA0290E0189FF001199FF00DEC
:102230001124EF53FB4F2DB73EB72A5E3F4F0FB629
:10224000F8943EBF0FBE2DBF27A530A9232B09F45C
:1022500053C021A932A9232B09F44EC08FED92E07F
:102260009F938F93DF93CF930E94DF31E091EA0237
:102270008091ED02282F082E000C330B3F938F9393
:102280001E9FF0011124EF53FB4F82A98F9381A968
:102290008F9380A98F9387A58F93DF93CF938AEF36
:1022A00091E09F938F93DF93CF930E94462A63E040
:1022B00070E082EB92E00E94CA068091370363E0EF
:1022C00070E090E00E94EB0DE091EA021E9FF001A9
:1022D0001124EF53FB4F10AA17A612AA11AA80913E
:1022E00037030E946B198DB79EB740960FB6F894CE
:1022F0009EBF0FBE8DBF0CC2C4E3C89FF001C99F33
:10230000F00D1124EF53FB4F80A591A5A2A5B3A515
:10231000892B8A2B8B2B09F458C08DEA92E09F936E
:102320008F9304E713E01F930F930E94DF31809196
:10233000ED02282F082E000C330B3F938F93E09172
:10234000EA02CE9FF0011124EF53FB4FDF01989674
:1023500013968C9113978F9312968C9112978F935B
:1023600011968C918F9380A58F931F930F9388E084
:1023700092E09F938F931F930F930E94462A63E0EE
:1023800070E082E892E00E94CA068091370363E021
:1023900070E090E00E94EB0DE091EA02CE9FF00128
:1023A0001124EF53FB4F10A611A612A613A680917D
:1023B00037030E946B192DB73EB7205F3F4F0FB612
:1023C000F8943EBF0FBE2DBFA3C187A1882309F497
:1023D00048C08DE792E09F938F9304E713E01F932B
:1023E0000F930E94DF318091ED02282F082E000C00
:1023F000330B3F938F93E091EA02CE9FF0011124BB
:10240000EF53FB4F87A11F928F931F930F9384E18C
:1024100092E09F938F931F930F930E94462A63E04D
:1024200070E082E592E00E94CA068091370363E083
:1024300070E090E00E94EB0DE091EA02CE9FF00187
:102440001124EF53FB4F17A2809137030E946B19A1
:102450008DB79EB70E960FB6F8949EBF0FBE8DBF78
:1024600057C185A596A5019609F454C084A58F3F50
:1024700009F450C08DE492E09F938F9304E713E03A
:102480001F930F930E94DF31E091EA028091ED02E9
:10249000282F082E000C330B3F938F93CE9FF00113
:1024A0001124EF53FB4F86A58F9385A58F9384A5A9
:1024B0001F928F931F930F938AEF91E09F938F93B7
:1024C0001F930F930E94462A63E070E086E292E039
:1024D0000E94CA068091370363E070E090E00E949A
:1024E000EB0DE091EA02CE9FF0011124EF53FB4F78
:1024F0008FEF9FEF96A785A784A7809137030E944F
:102500006B198DB79EB740960FB6F8949EBF0FBE5D
:102510008DBFFEC081E292E09F938F93C4E7D3E02A
:10252000DF93CF930E94DF318091ED02282F082E98
:10253000000C330B3F938F93DF93CF938FE192E0A7
:102540009F938F93DF93CF930E94462A63E070E0BE
:1025500086E092E00E94CA068091370363E070E053
:1025600090E00E94EB0D809137030E946B192DB70C
:102570003EB7245F3F4F0FB6F8943EBF0FBE2DBF4E
:10258000C7C061E072E084E793E00E946806813092
:1025900009F07BC00E942D066093CC027093CD029F
:1025A0008093CE029093CF0288EC92E09F938F931A
:1025B00087E292E09F938F93C4E7D3E0DF93CF93BA
:1025C0000E94692A8CEF91E09F938F93DF93CF93C2
:1025D0000E94DF318091ED02282F082E000C330B72
:1025E0003F938F938091EB021F928F938091CF0244
:1025F0008F938091CE028F938091CD028F938091A3
:10260000CC028F938091CB028F938091CA028F93DB
:102610008091C9028F938091C8028F93DF93CF93EB
:1026200080E392E09F938F93DF93CF930E94462A9B
:10263000809137030E946B19E091EA021E9FF0011E
:102640001124EF53FB4F8091CC029091CD02A091C9
:10265000CE02B091CF024091C8025091C902609160
:10266000CA027091CB02841B950BA60BB70B818B12
:10267000928BA38BB48B2DB73EB7245E3F4F0FB622
:10268000F8943EBF0FBE2DBF43C06CE573E084E7F6
:1026900093E00E946806813001F563E070E087EE08
:1026A00091E00E94CA066091370370E080E090E0FC
:1026B00043E050E00E94060763E070E084EE91E0A2
:1026C0000E94CA0663E070E084E793E00E94FA0D7E
:1026D000809137030E9450091BC062E070E08DECCE
:1026E00091E00E94CA066091370370E080E090E0BC
:1026F00042E050E00E94060762E070E08AEC91E060
:102700000E94CA0662E070E084E793E00E94FA0D3E
:1027100063E672E084E793E0DF91CF911F910F9120
:102720000C94182ADF91CF911F910F910895FC010D
:10273000738362830895FC01778366830895FC01A7
:10274000758364830895089508958CE308959FB771
:10275000F89480912F03882319F0815080932F03E0
:1027600080912F03811105C08CB58F7B8CBD109299
:102770002E039FBF08958CB58F778CBD08958CB5BF
:1027800080688CBD08956EBD00000DB407FEFDCFBE
:102790008EB50895CF93DF93EC01888D998DDC0180
:1027A000ED91FC910680F781E02D099561E08A8D1D
:1027B0000E94C81B61E08A8D0E947C1B64E670E069
:1027C00080E090E00E94041C81E0DF91CF910895A9
:1027D000CF92DF92EF92FF920F931F93CF93DF93ED
:1027E000EC016B018A01E881F9810280F381E02D1F
:1027F0000995F82E8823E1F0C114D104B1F0011538
:10280000110599F0EFB6F89488A1F8019081891725
:1028100010F488A18083F801408150E0BE016F5D13
:102820007F4FC6010E940F2AEFBEC35ADF4F1882A6
:102830008F2DDF91CF911F910F91FF90EF90DF903F
:10284000CF900895CF93DF93FC0126813781211526
:10285000310549F02130310541F02230310539F0A0
:102860002330310531F020E005C024E003C028E02A
:1028700001C02CE09CB5937F922B9CBD84819581F7
:10288000019709F04AC08CB580628CBD828193812A
:1028900001978430910528F4FC01E25DFE4FC08170
:1028A00001C0C1E08C2F0E946D1BDFB7F8948091AE
:1028B0002F03811127C0E4E2F7E09491E0E1F7E013
:1028C0002491E92FF0E0EE0FFF1FE450F94FA5919E
:1028D000B491EC91E22321F461E08AE00E947C1B38
:1028E00061E08AE00E94C81B8CB580618CBD8CB50C
:1028F00080648CBD61E08DE00E94C81B61E08BE0CC
:102900000E94C81B80912F038F5F80932F03DFBF2E
:102910008C2FDF91CF910C946D1B9CB59F7D9CBD3E
:10292000B5CFAF92BF92DF92EF92FF920F931F93BA
:10293000CF93DF9300D0CDB7DEB78C01E62EF42E17
:10294000DFB6F89460E0DC015A968C9129835A83B3
:102950000E947C1BF801808D918DDC01ED91FC9132
:102960006E2D60680190F081E02D0995E82EAF2C66
:102970005A81B52E2981F20EFA1471F0F801808D7A
:10298000918DD5016D915D01DC01ED91FC9101907E
:10299000F081E02D0995F0CF61E0F801828D0E9471
:1029A0007C1BDFBE8E2D0F900F90DF91CF911F917A
:1029B0000F91FF90EF90DF90BF90AF900895EF924E
:1029C000FF920F931F93CF93DF931F92CDB7DEB784
:1029D0007C01162F0FB7F89460E0DC015A968C91B9
:1029E00049830E947C1BF701808D918DDC01ED9164
:1029F000FC91612F60680190F081E02D0995182FFE
:102A0000F701808D918DDC01ED91FC910190F081B9
:102A1000E02D4981642F099561E0F701828D0E94C4
:102A20007C1B0FBF812F0F90DF91CF911F910F91D2
:102A3000FF90EF900895CF93DF93FC0122813381C3
:102A40002130310549F0EC0140E061E00E94DF14E3
:102A500081E090E09B838A8381E0DF91CF910895AC
:102A60000F931F93CF93DF93EC01162F0FB7F894BA
:102A700060E08A8D0E947C1B888D998DDC01ED9130
:102A8000FC91612F6F770190F081E02D0995888D81
:102A9000998DDC01ED91FC910190F081E02D60E0D9
:102AA0000995182F61E08A8D0E947C1B0FBF812F32
:102AB000DF91CF911F910F9108950F931F93CF93A3
:102AC0008C01C62F61E00E943015837ECC71482FA7
:102AD0004C2B61E0C8010E94DF1467E2C8010E942C
:102AE000301587FFFACFCF911F910F910895CF93A3
:102AF000DF93FC01228133812330310519F1EC0190
:102B0000828193810497D1F0878D823154F045E51D
:102B10006AE5CF010E94DF1440E76CE5CE010E9418
:102B2000DF1440E465E2CE010E94DF1460E1CE01D3
:102B30000E945D1584E090E09B838A83C35ADF4F37
:102B4000888101C080E0DF91CF910895CF93DF931A
:102B5000FC012281338122303105B1F0EC01878DF7
:102B6000823154F045E56AE5CF010E94DF1440E769
:102B70006CE5CE010E94DF146D8DCE010E945D15C3
:102B800082E090E09B838A83DF91CF910895BF928A
:102B9000CF92DF92EF92FF920F931F93CF93DF9329
:102BA000EC01B62EC72E142F4D3310F000E08BC071
:102BB000E881F9810484F585E02D0995CE010E9414
:102BC000A615E881F9810288F389E02DCE010995E7
:102BD000082F882359F3DFB6F89460E08A8D0E94AD
:102BE0007C1B888D998DDC01ED91FC910190F08129
:102BF000E02D60E80995A88DB98DED91FC911197B4
:102C00000190F081E02D64E0610FCD010995888D80
:102C1000998DDC01ED91FC910190F081E02D6A85A8
:102C20000995888D998DDC01ED91FC910190F081E1
:102C3000E02D6B850995888D998DDC01ED91FC91D6
:102C40000190F081E02D6C850995888D998DDC01CE
:102C5000ED91FC910190F081E02D6D850995EB2CB3
:102C6000FC2C115068F0888D998DF70161917F01DE
:102C7000DC01ED91FC910190F081E02D0995F1CFFF
:102C800061E08A8D0E947C1BDFBE8A819B81039755
:102C9000D1F08F8D823154F04DE56AE5CE010E946E
:102CA000DF144CE76CE5CE010E94DF1440E065E2E2
:102CB000CE010E94DF146CE0CE010E945D1583E01E
:102CC00090E09B838A83802FDF91CF911F910F919A
:102CD000FF90EF90DF90CF90BF900895EF92FF921A
:102CE0000F931F93CF93DF93EC0168E20E9430159E
:102CF000182F8A819B81039711F413FD08C08A81E4
:102D00009B81049709F0A2C012FD0BC09FC0CE01A9
:102D10000E94A6152B893C892F5F3F4F3C8B2B8B44
:102D2000EECF64E2CE010E943015869581958E87A4
:102D30000E943E1CFE01E25AFF4F60837183828332
:102D40009383CE010E94A615FFB6F89460E08A8DA9
:102D50000E947C1B888D998DDC01ED91FC91019086
:102D6000F081E02D60E00995888D998DDC01ED9171
:102D7000FC910190F081E02D60E00995082F8CEF27
:102D8000800F8D3300F5888D998DDC01ED91FC91DC
:102D90000190F081E02D60E009958E838D81811195
:102DA00018C09E818C819817A1F08E818F3F59F4B5
:102DB00010C089899A8901969A8B898B81E0FE01DE
:102DC000E35AFF4F808361E08A8D0E947C1BFFBE27
:102DD0003DC0888D998DDC01ED91FC910190F081D1
:102DE000E02D60E009958F83888D998DDC01ED9150
:102DF000FC910190F081E02D60E009958887888D35
:102E0000998DDC01ED91FC910190F081E02D60E065
:102E10000995898718A210E00450110988A190E053
:102E20008017910734F6E8A0888D998DDC01ED912B
:102E3000FC910190F081E02D60E00995FE01EE0D1E
:102E4000F11D81A388A18F5F88A3E8CFDF91CF9187
:102E50001F910F91FF90EF9008958091350390910D
:102E60003603009711F00C946E1608958091330389
:102E700090913403009711F00C946E160895809190
:102E8000310390913203009711F00C946E1608955F
:102E9000CF93DF93EC016DE30E943015482F4E7FF6
:102EA0006DE3CE01DF91CF910C94DF140F931F934C
:102EB000CF93DF93EC018B0125E0AB0162E00E9430
:102EC0009114A8014B5F5F4F22E069E1CE010E949F
:102ED0009114F801478167E3CE01DF91CF911F91F3
:102EE0000F910C94DF14EF92FF920F931F93CF93E7
:102EF000DF93CDB7DEB72A970FB6F894DEBF0FBECB
:102F0000CDBF8C010E94CA13E82E811102C0E12CB2
:102F1000A2C0F801838D823029F08330C1F7FF24ED
:102F2000F39401C0F12C60E1C8010E943015F80152
:102F3000868F9FEF980F9E3F50F760E0F801838DDA
:102F40000E94C81BF801848D8F3F49F480913003A3
:102F50008430E8F691E0980F90933003848FF80165
:102F6000948DE92FF0E0EE0FFF1FEF5CFC4F118313
:102F70000083911103C06FE377E109C0913019F428
:102F800066E377E104C0923011F66DE277E18F2DB0
:102F90000E94A11AC8010E94A6154FE86CE3C8015F
:102FA0000E94DF1440E36FE6C8010E94DF1445E58C
:102FB0006AE5C8010E94DF1440E76CE5C8010E9481
:102FC000DF148DE2898784ED8A876EE2C8010E9452
:102FD0003015F82E22E0AE01475F5F4F6FE2C80167
:102FE0000E9491144F2D477C48686EE2C8010E94F0
:102FF000DF1448E050E06EEB77E0CE0101960E94CE
:103000007731BE016F5F7F4FC8010E94561740E0C5
:103010006CE2C8010E94DF1444E06DE2C8010E9426
:10302000DF144CE667E0C8010E94DF1440E868E066
:10303000C8010E94DF1440E069E0C8010E94DF146B
:10304000C8010E9448178DE0F801878F4FE961E1C0
:10305000C8010E94DF148E2D2A960FB6F894DEBFA9
:103060000FBECDBFDF91CF911F910F91FF90EF90D9
:1030700008958091C5059091C605DC01ED91FC9104
:103080000484F585E02D0994FF920F931F93CF934D
:10309000DF938C01F62EC5ECD5E088819981DC01A7
:1030A000ED91FC91008CF18DE02D642F09958881C4
:1030B0009981DC01ED91FC910680F781E02D4F2D87
:1030C000B801DF91CF911F910F91FF90099408955E
:1030D000009769F0FC0101900020E9F73197AF01FA
:1030E000481B590BBC0184E294E00C94780480E006
:1030F00090E00895682F84E294E00C940F050F93FC
:103100001F93CF93DF938C01C0E0D0E0F801EC0F68
:10311000FD1F6491662371F0E0912404F091250471
:103120000190F081E02D84E294E00995892B11F063
:103130002196ECCFCE01DF91CF911F910F91089591
:10314000CF93DF93EC016BE278E088EE93E00E948E
:103150008B31BE0188EE93E00E948031E8EEF3E00F
:1031600001900020E9F73197AF01485E534068EEC7
:1031700073E080EC93E00E941F2A21E0892B09F084
:1031800020E0822FDF91CF9108951F93CF93DF939B
:10319000182FC5ECD5E088819981DC01ED91FC9177
:1031A0000688F789E02D612F099588819981DC01D6
:1031B000ED91FC91028CF38DE02D612F09951A831E
:1031C000DF91CF911F910895FF920F931F93CF939B
:1031D000DF931F92CDB7DEB7F62E05EC15E0F801B0
:1031E000A081B181ED91FC911197048CF58DE02DBA
:1031F000682FCD010995D8018D919C91DC01ED914D
:10320000FC91068CF78DE02D40E060E8099581E2A5
:1032100089834F2D61E0CE0101960E9444180E94DF
:1032200039180F90DF91CF911F910F91FF90089562
:10323000CF92DF92EF92FF920F931F93CF93DF9382
:103240006C017B018A01E901892B69F08091C50538
:103250009091C605DC01ED91FC9104A0F5A1E02D53
:103260000995F6018083E114F10469F08091C505A8
:103270009091C605DC01ED91FC9102A0F3A1E02D37
:103280000995F70180830115110569F08091C50545
:103290009091C605DC01ED91FC9106A0F7A1E02D0F
:1032A0000995F8018083209761F08091C505909180
:1032B000C605DC01ED91FC9100A4F1A5E02D099576
:1032C000888381E0DF91CF911F910F91FF90EF9064
:1032D000DF90CF9008953F924F925F926F927F92CE
:1032E0008F929F92AF92BF92CF92DF92EF92FF9216
:1032F0000F931F93CF93DF9300D000D0CDB7DEB7ED
:10330000382E04E713E0F80101900020E9F7319727
:10331000E457F340FD9760F061E070E08CE198E0E5
:103320000E94CA0661E070E0C8010E94FA0DF3C075
:103330008CE3E8E3F3E0DF011D928A95E9F764E0AE
:1033400070E082E198E00E94CA0664E070E084E7E1
:1033500093E00E94FA0DF80101900020E9F73197FF
:10336000AF014457534064E773E088E393E00E9461
:103370000F2AA8951091CC051F5F1093CC0520E073
:10338000412C512C3201539401E0020F8091CF0562
:10339000821708F4B3C08091C5059091C605DC0181
:1033A000ED91FC91048CF58DE02D612F09958091B4
:1033B000C5059091C605DC01ED91FC91068CF78D59
:1033C000E02D40E860E00995432D6CE388E393E04D
:1033D0000E9444180E943918BFEF3B1609F49AC0A6
:1033E000023098F08091C8059091C905A091CA0556
:1033F000B091CB050196A11DB11D8093C805909396
:10340000C905A093CA05B093CB050E943E1C6B0171
:103410007C01A090CD05B090CE050E94E02DA301C7
:1034200092010E94EF359B01AC01D5010E940E363E
:10343000A30192010E94EF352A0D3B1D4601570161
:10344000820E931EA11CB11C0E943E1CA50194017A
:10345000261B370B480B590BCA01B901202F161632
:103460001706180619060CF08FCFA091C505B0916C
:10347000C605ED91FC9111970088F189E02DCD01F1
:103480000995882309F38091C5059091C605DC0153
:10349000ED91FC910480F581E02D40E050E060E08A
:1034A00070E00995882381F29E012F5F3F4FAE01A6
:1034B0004E5F5F4FBE016D5F7F4FCE0104960E944D
:1034C0001819882309F26C81898163110AC02B8144
:1034D0009091C705291305C087FF03C09A819117F2
:1034E000C9F087FDB1CF8A81E62FF0E0EB53FA4FA8
:1034F00093858913A9CF0E94E418A6CF62E070E0FB
:1035000086E098E00E94CA0662E070E084E793E0FB
:103510000E94FA0DA8950F900F900F900F90DF91D9
:10352000CF911F910F91FF90EF90DF90CF90BF90C0
:10353000AF909F908F907F906F905F904F903F9053
:1035400008958230B8F4E82FF0E0EE0FFF1FEC5F33
:10355000FE4F71836083813039F080916900836010
:1035600080936900E89A0895809169008C60809347
:103570006900E99A08951F920F920FB60F921124D5
:103580002F933F934F935F936F937F938F939F936B
:10359000AF93BF93EF93FF93E0910601F091070182
:1035A0000995FF91EF91BF91AF919F918F917F917D
:1035B0006F915F914F913F912F910F900FBE0F90A0
:1035C0001F9018951F920F920FB60F9211242F93F0
:1035D0003F934F935F936F937F938F939F93AF939B
:1035E000BF93EF93FF93E0910401F09105010995DA
:1035F000FF91EF91BF91AF919F918F917F916F91CB
:103600005F914F913F912F910F900FBE0F901F90A0
:10361000189580E00895FC0181850895FC0180855E
:103620000895FC0187810895FC0186810895FC01BD
:10363000409595854923642B65870895FC0164872F
:103640000895FC0163870895FC0162870895FC01D9
:1036500064830895FC016583089580E00895FC016A
:103660002281338123303105D1F381E00895CF9356
:10367000DF93EC01E881F9810280F381E02DCE0136
:1036800009958823B9F3DF91CF91089581E00895DA
:103690003FB7F8948091400790914107A09142076D
:1036A000B091430726B5A89B05C02F3F19F001969E
:1036B000A11DB11D3FBFBA2FA92F982F8827820FB8
:1036C000911DA11DB11DBC01CD0142E0660F771F08
:1036D000881F991F4A95D1F708959CB5282F23700C
:1036E0009C7F922B9CBD2DB582FB992790F9822F50
:1036F0008E7F892B8DBD089590E0FC01E65CF74F2D
:103700003491FC01EA5FF84F2491FC01E65EF84F2A
:10371000E491EE2309F43BC0332339F1333091F0C7
:1037200038F43130A9F0323001F584B58F7D12C004
:10373000373091F03830A1F03430B9F48091800006
:103740008F7D03C0809180008F77809380000DC0B3
:1037500084B58F7784BD09C08091B0008F7703C096
:103760008091B0008F7D8093B000F0E0EE0FFF1FDE
:10377000E05DF74FA591B4918FB7F894EC9161118A
:1037800003C020952E2301C02E2B2C938FBF0895AC
:10379000CF93DF9390E0FC01EA5FF84F2491FC01A6
:1037A000E65EF84F8491882361F190E0880F991FBD
:1037B000FC01E450F94FC591D491FC01E05DF74F55
:1037C000A591B491611109C09FB7F89488812095A3
:1037D00082238883EC912E230BC0623061F49FB763
:1037E000F8943881822F809583238883EC912E2B47
:1037F0002C939FBF06C08FB7F894E8812E2B2883A7
:103800008FBFDF91CF9108958F929F92AF92BF9219
:10381000CF92DF92EF92FF926B017C010E94481BD6
:103820004B015C01C114D104E104F104F1F00E94E8
:10383000481BDC01CB0188199909AA09BB09883EFC
:103840009340A105B10570F321E0C21AD108E10847
:10385000F10888EE880E83E0981EA11CB11CC114EB
:10386000D104E104F10419F7DDCFFF90EF90DF9070
:10387000CF90BF90AF909F908F9008952FB7F894FE
:1038800060913C0770913D0780913E0790913F0702
:103890002FBF08958F929F92AF92BF92CF92DF92E7
:1038A000EF92FF92CF93DF93FC0126893789232B78
:1038B00011F481E038C0EC010E943E1C6B017C01D8
:1038C00089E0882E912CA12CB12CE881F981048803
:1038D000F589E02DCE010995882359F30E943E1CFD
:1038E000AB01BC014C195D096E097F098E899F8966
:1038F000A0E0B0E084179507A607B70798F00E94EC
:10390000E02DA50194010E94EF359B01AC012F5FD2
:103910003F4F4F4F5F4FA4E6B0E00E940E360E942B
:10392000041CD3CF80E0DF91CF91FF90EF90DF9028
:10393000CF90BF90AF909F908F9008958F929F925D
:10394000AF92BF92CF92DF92EF92FF92CF93DF932D
:10395000EC016B010E943E1C4B015C01E12CF12C3F
:103960000E943E1CDC01CB0188199909AA09BB09F8
:103970008C159D05AE05BF0530F48A819B810397A8
:1039800079F381E001C080E0DF91CF91FF90EF906B
:10399000DF90CF90BF90AF909F908F9008958F92BF
:1039A0009F92AF92BF92CF92DF92EF92FF92CF930E
:1039B000DF93EC016B010E943E1C4B015C01E12C8A
:1039C000F12C0E943E1CDC01CB0188199909AA093F
:1039D000BB098C159D05AE05BF0550F4E881F98142
:1039E0000280F381E02DCE010995882351F301C0B7
:1039F00080E0DF91CF91FF90EF90DF90CF90BF906C
:103A0000AF909F908F9008951F920F920FB60F92D4
:103A100011242F933F938F939F93AF93BF938091E4
:103A20003C0790913D07A0913E07B0913F07309130
:103A30003B0723E0230F2D3720F40196A11DB11D74
:103A400005C026E8230F0296A11DB11D20933B0758
:103A500080933C0790933D07A0933E07B0933F07A8
:103A60008091400790914107A0914207B091430790
:103A70000196A11DB11D8093400790934107A0932B
:103A80004207B0934307BF91AF919F918F913F91B0
:103A90002F910F900FBE0F901F901895CF93DF932B
:103AA000CDB7DEB769970FB6F894DEBF0FBECDBFB6
:103AB000789484B5826084BD84B5816084BD85B509
:103AC000826085BD85B5816085BD80916E00816015
:103AD00080936E00109281008091810082608093BB
:103AE00081008091810081608093810080918000BD
:103AF0008160809380008091B10084608093B100E8
:103B00008091B00081608093B00080917A008460E1
:103B100080937A0080917A00826080937A0080910D
:103B20007A00816080937A0080917A008068809327
:103B30007A001092C10060E086E00E94C81B61E03C
:103B400084E00E94C81B60E084E00E947C1B62E06D
:103B500083E00E94C81B62E085E00E94C81B62E00F
:103B600087E00E94C81B62E088E00E94C81B62E0F8
:103B700089E00E94C81B62E08EE00E94C81B62E0E0
:103B80008FE00E94C81B62E080E10E94C81B62E0D7
:103B900081E10E94C81B62E082E10E94C81B62E0D2
:103BA00083E10E94C81BE0913404F091350482E067
:103BB0008083E0913004F09131041082E09132046E
:103BC000F091330410E1108310923C04E09138042A
:103BD000F091390486E08083E0913604F091370457
:103BE000808180618083E0913604F0913704808188
:103BF00088608083E0913604F0913704808180688A
:103C00008083E0913604F091370480818F7D80833A
:103C100080E090E00E94C70880E090E00E94C70822
:103C200060E070E081E693E00E94A20C80914C0776
:103C30000E94D6081D8A9E012F5F3F4F7901D9014E
:103C40001D921A95E9F763E070E084E493E00E9426
:103C5000A20CA8956E01B5E1CB0ED11CB60180E097
:103C600090E00E94FB058D89853038F490E09093B8
:103C700003018093020111E001C010E081E090E0B7
:103C80000E94A7358E3F24F0853114F40C942E2821
:103C900010E0B60182E090E00E94FB058D899FEF65
:103CA000980F9E3F18F48093D00601C010E0B60133
:103CB00083E090E00E94FB058D898F3F19F080938F
:103CC000F10201C010E0A895B60184E090E00E94E6
:103CD000FB058D898F3F19F08093F00201C010E041
:103CE000B60185E090E00E94FB058D899FEF980F5B
:103CF0009E3F18F48093EF0201C010E0B60186E009
:103D000090E00E94FB058D899FEF980F9E3F18F46D
:103D10008093EE0201C010E080E1F70111928A95D4
:103D2000E9F7570187E0882E912C00E10E0DB501CF
:103D3000C4010E94FB05F5018081FFEFAF1ABF0AA5
:103D400080528F3508F010E02FEF821A920A0A1184
:103D5000EECF112379F080E1E3EFF2E0DF01282FCD
:103D60001D922A95E9F7F701A3EFB2E001900D92B9
:103D70008A95E1F7B60187E190E00E94FB058D8905
:103D8000823058F061E070E08CE393E00E94A20C76
:103D90000E94C80D0E94720D04C08093EB02112393
:103DA00089F30E94C10C8CE593E09F938F9304E705
:103DB00013E01F930F930E94DF3180914C071F92F5
:103DC0008F931F9286E08F931F930F9385E492E069
:103DD0009F938F931F930F930E94462A8091D00642
:103DE0000E94500964E070E083E593E00E94A20C19
:103DF00060E876E488E698E50E94D80BA89587EFFE
:103E000096E00E949C068DE493E00E949C0680E070
:103E100090E00E94C70883E00E94050699E288E1CD
:103E20000FB6F894A895809360000FBE9093600041
:103E30000FB6F894DEBF0FBECDBF1E0197E1290E6D
:103E4000311C4E01A8E18A0E911C5E01B9E1AB0E56
:103E5000B11C81E080932D0380912D03863010F0FA
:103E60000C942A2884E294E00E94B604A8951816BF
:103E7000190614F00C9446279C0120523109203673
:103E8000310540F08D30910529F08830910511F011
:103E90000C944627E0912C03E73210F40C94802810
:103EA0008D30910579F0089709F0F0C7E150E09363
:103EB0002C03F0E0E054FC4F108280E692E00E9478
:103EC0006818E4C780E090E00E94C70880912C0346
:103ED00010922C03882309F4D9C76BE278E080ECB8
:103EE00093E00E946806813009F013C4A8958BEE18
:103EF00096E00E94A018813009F061C0E0ECF3E088
:103F000001900020E9F7AF01465C53406AEC73E092
:103F100088EE93E00E94372A40E050E060E070E0D5
:103F200088EE93E00E945C3060930703709308036F
:103F30008093090390930A0361157105810591052A
:103F400019F10E94D80B87EF96E00E949C0681EE43
:103F500096E00E949C0680E090E00E94C70864E022
:103F600070E08BEC96E00E94CA060E942D0644E0A9
:103F700050E00E94710764E070E083E692E00E94E6
:103F8000EB0684E090E0E6C287EF96E00E949C0694
:103F900080EC96E00E949C0680E090E00E94C708BA
:103FA00062E070E08AEA96E00E94CA0662E070E091
:103FB00083E692E00E94EB0682E090E0CBC282EAC8
:103FC00096E00E94A018813009F06FC087EF96E05C
:103FD0000E949C068BE996E00E949C068BE390E091
:103FE0000E947A186091D00670E080E090E040E096
:103FF00050E00E9406078CE290E00E947A186091DF
:10400000030370910403809105039091060340E03F
:1040100050E00E94A7088CE290E00E947A188091FC
:10402000460790914707009711F48DE497E0B70198
:10403000681B790B80E090E040E050E00E94A70808
:104040008CE290E00E947A180E942D0640E050E039
:104050000E94A7088CE290E00E947A1860E08091AC
:104060000201909103010E94A5068CE290E00E945B
:104070007A1840E150E063EF72E084E294E00E943D
:1040800078048CE290E00E947A180E9426078CE265
:1040900090E00E947A186091F20270E080E090E077
:1040A00040E050E00E940607D9C683E996E00E94EE
:1040B000A018813009F049C0E0ECF3E00190002045
:1040C000E9F7AF01485C53406CEC73E088EE93E095
:1040D0000E94372A40E050E060E070E088EE93E014
:1040E0000E945C30862F609326030E941F068093F7
:1040F000010187EF96E00E949C06809126038E3F87
:1041000041F48CE896E00E949C0681E00E94BA0B84
:10411000A5C6809101018F3F41F08CE896E00E9496
:104120009C0661E08091010197C68FE796E00E94AE
:104130009C068BE390E00E947A188091260360E051
:1041400070E090E00E94EB0DA1C689E796E00E9426
:10415000A018813009F0A9C0E0ECF3E00190002044
:10416000E9F7AF01465C53406AEC73E088EE93E0F8
:104170000E94372A82E293E09F938F9386E293E036
:104180009F938F9384E692E09F938F9388EE93E0C2
:104190009F938F930E94692A809126030E941F0695
:1041A0008093010187EF96E00E949C06E091010157
:1041B0000FB6F894DEBF0FBECDBFEF3F89F18091FF
:1041C000220390912303A0912403B0912503AC0115
:1041D000BD0141505109610971094E3F5F4F6F4F59
:1041E0007F4FF0F424E3E29FF0011124EF53FB4FE3
:1041F00080A791A7A2A7B3A78FE696E00E949C068E
:104200008BE390E00E947A188091260360E070E0D2
:1042100090E00E94EB0D63E070E089E596E013C04A
:104220008EE496E00E949C068BE390E00E947A1850
:104230008091260360E070E090E00E94EB0D62E068
:1042400070E08BE396E00E94CA0663E070E083E3CF
:1042500096E00E94CA066091260370E080E090E03C
:1042600043E050E00E94060763E070E086E296E0DB
:104270000E94CA0660912203709123038091240357
:1042800090912503209102013091030123303105E3
:104290000CF45EC140E050E00E94A70860E070E0CE
:1042A00089EB94E00E94CA0653C180E296E00E9426
:1042B000A018813009F0B4C0E0ECF3E001900020D8
:1042C000E9F7AF01465C53406AEC73E088EE93E097
:1042D0000E94372A8AE193E09F938F938EE193E0C7
:1042E0009F938F9386E293E09F938F938DE692E066
:1042F0009F938F9388EE93E09F938F930E94692AF8
:10430000809126030E941F068093010187EF96E0AB
:104310000E949C06E09101010FB6F894DEBF0FBE2B
:10432000CDBFEF3FC1F140911E0350911F0360913B
:104330002003709121034F3F51056105710558F528
:1043400080911A0390911B03A0911C03B0911D034F
:10435000893BFBE09F07A105B105E8F424E3E29F58
:10436000F0011124EF53FB4F44A796A785A786E1E0
:1043700096E00E949C068BE390E00E947A18809160
:10438000260360E070E090E00E94EB0D63E070E0D7
:104390008CEF95E013C081EF95E00E949C068BE3C3
:1043A00090E00E947A188091260360E070E090E02F
:1043B0000E94EB0D62E070E086ED95E00E94CA0677
:1043C00063E070E08EEC95E00E94CA0660912603DF
:1043D00070E080E090E043E050E00E94060763E078
:1043E00070E085EB95E00E94CA0660911E03709113
:1043F0001F03809120039091210343E050E00E942D
:10440000A70863E070E088EA95E00E94CA06609120
:104410001A0370911B0380911C0390911D0394C09B
:1044200082EA95E00E94A018813009F096C0E0EC85
:10443000F3E001900020E9F7AF01465C53406AECDD
:1044400073E088EE93E00E94372A86E193E09F9321
:104450008F9386E293E09F938F9384E692E09F93FD
:104460008F9388EE93E09F938F930E94692A8091A7
:1044700026030E941F068093010187EF96E00E94A9
:104480009C06E09101010FB6F894DEBF0FBECDBFD0
:10449000EF3F41F18091160390911703A09118030B
:1044A000B09119038F3F9105A105B105D8F424E31C
:1044B000E29FF0011124EF53FB4F87A388E995E0B9
:1044C0000E949C068BE390E00E947A18809126035C
:1044D00060E070E090E00E94EB0D63E070E089E73F
:1044E00095E013C08EE695E00E949C068BE390E079
:1044F0000E947A188091260360E070E090E00E94AC
:10450000EB0D62E070E082E595E00E94CA0663E090
:1045100070E08AE495E00E94CA066091260370E08C
:1045200080E090E043E050E00E94060763E070E026
:1045300089E395E00E94CA06609116037091170303
:10454000809118039091190343E050E00E94A7085E
:1045500083E090E00E94C70899C483E395E00E943D
:10456000A018813009F0C8C0E0ECF3E00190002011
:10457000E9F7AF01465C53406AEC73E088EE93E0E4
:104580000E94372AAEE0B3E0BF93AF9382E193E09D
:104590009F938F9386E293E09F938F938DE692E0B3
:1045A0009F938F9388EE93E09F938F930E94692A45
:1045B000809126030E941F068093010187EF96E0F9
:1045C0000E949C06E09101010FB6F894DEBF0FBE79
:1045D000CDBFEF3F09F443C0409112035091130344
:1045E0006091140370911503DB01CA010A97A109B8
:1045F000B1098F349240A105B10588F580910E0371
:1046000090910F03A0911003B09111038C019D01B3
:104610000A501109210931090F3A1B4021053105C2
:10462000F0F424E3E29FF0011124EF53FB4F50AB71
:1046300047A792AB81AB89E295E00E949C068BE391
:1046400090E00E947A188091260360E070E090E08C
:104650000E94EB0D63E070E08DE095E013C082E016
:1046600095E00E949C068BE390E00E947A1880916E
:10467000260360E070E090E00E94EB0D62E070E0E5
:1046800086EE94E00E94CA0663E070E08EED94E04E
:104690000E94CA066091260370E080E090E043E04B
:1046A00050E00E94060763E070E08BED94E00E940A
:1046B000CA066091120370911303809114039091C4
:1046C000150343E050E00E94A70863E070E084ED2A
:1046D00094E00E94CA0660910E0370910F038091CE
:1046E00010039091110343E050E00E94A70863E09B
:1046F00070E082ED94E0BBC362E070E08DEB94E08B
:104700000E94CA0662E070E080EC93E00E94FA0D1D
:10471000BDC384E1D7011D928A95E9F71092070382
:10472000109208031092090310920A03A89564EBF3
:1047300074E080EC93E00E946806813029F40E94C6
:10474000800C01E010E002C000E010E06EEA74E0CE
:1047500080EC93E00E9468068130B9F50E94E5067E
:1047600060E070E086EA94E00E94CA06609103036C
:1047700070910403809105039091060340E050E09E
:104780000E94710780E090E00E94C7080E94E50641
:1047900060E070E088E994E00E94CA0680914607D4
:1047A00090914707009711F48DE497E0B601681BDC
:1047B000790B80E090E040E050E00E94A70880E0A4
:1047C00090E00E94C70802E010E063E974E080EC2A
:1047D00093E00E946806813021F40E94C80D01E038
:1047E00010E06EE874E080EC93E00E94680682308E
:1047F00071F5E0ECF3E001900020E9F7AF01465CD1
:10480000534065EC73E0C7010E94372A40E050E056
:1048100060E070E0C7010E945C3060930703709312
:1048200008038093090390930A03611571058105BC
:10483000910529F00E94D80B01E010E00BC00E9406
:10484000E50660E070E085E894E00E94CA06023068
:10485000110541F06EE874E080EC93E00E94680678
:10486000882319F10E94E50660E070E08FE794E08C
:104870000E94CA060E942D0640E050E00E94710787
:1048800060E070E08BE794E00E94CA060E942D066B
:1048900040E050E00E94A70880E090E00E94C70836
:1048A0000230110511F001E010E066E774E080ECE1
:1048B00093E00E946806823009F056C0E0ECF3E015
:1048C00001900020E9F7AF01465C534065EC73E0CE
:1048D00088EE93E00E94372A60E774E088EE93E068
:1048E0000E946806813039F4E1E0F0E0F0930301C2
:1048F000E093020134C06BE674E088EE93E00E941E
:104900006806813039F422E030E0309303012093CF
:10491000020125C066E674E088EE93E00E94680616
:10492000813039F483E090E0909303018093020199
:1049300016C060E674E088EE93E00E94680681305D
:1049400039F4A4E0B0E0B0930301A093020107C0E2
:104950000E94E50660E070E085E594E088C20E9470
:10496000720D01E010E003C00230110541F066E76E
:1049700074E080EC93E00E9468068823C1F00E94F6
:10498000E50660E070E08DE494E00E94CA0660E015
:1049900080910201909103010E94A50680E090E0C1
:1049A0000E94C7080230110511F001E010E068E430
:1049B00074E080EC93E00E946806823079F5E0ECC8
:1049C000F3E001900020E9F7AF01465C534065EC4D
:1049D00073E088EE93E00E94372AE8EEF3E001905E
:1049E0000020E9F7E95FF34049F00E94E50660E046
:1049F00070E080E494E00E94A20C10C080E1E8EE38
:104A0000F3E0A3EFB2E001900D928A95E1F70E94E6
:104A1000720D0E94C10C01E010E003C002301105CC
:104A200041F068E474E080EC93E00E94680688231B
:104A3000C9F00E94E50660E070E08BE394E00E941C
:104A4000CA0640E150E063EF72E084E294E00E9425
:104A5000780480E090E00E94C7080230110511F050
:104A600001E010E066E374E080EC93E00E946806E9
:104A7000823009F046C0E0ECF3E001900020E9F755
:104A8000AF01465C534065EC73E088EE93E00E9412
:104A9000372A198E188E1F8A1D8ADF92CF923F9275
:104AA0002F929F928F92BF92AF92AAE7B2E0BF93EC
:104AB000AF9388EE93E09F938F930E94692A0FB67D
:104AC000F894DEBF0FBECDBF049749F00E94E50603
:104AD00060E070E08DE294E00E94A20C12C0898D2B
:104AE0008093F102888D8093F0028F898093EF028A
:104AF0008D898093EE020E94720D0E94C10C01E02C
:104B000010E00230110509F4ADC266E374E080ECF8
:104B100093E00E9468068111A5C260E274E080EC17
:104B200093E00E9468068230D9F5E0ECF3E0019052
:104B30000020E9F7AF01465C534065EC73E0C70124
:104B40000E94372A40E050E060E070E0C7010E9418
:104B50005C3060930703709308038093090390937C
:104B60000A032B013C0131E0431A51086108710826
:104B7000ADEF4A1651046104710448F00E94E50645
:104B800060E070E084E194E00E94A20C09C06093B0
:104B9000D0060E94720D0E94C10C01E010E003C01B
:104BA0000230110541F060E274E080EC93E00E9475
:104BB00068068823A1F00E94E50660E070E08BE0C3
:104BC00094E00E94CA068091D00660E070E090E018
:104BD0000E94EB0D0230110511F001E010E066E0DB
:104BE00074E080EC93E00E946806823029F5E0ECE6
:104BF000F3E001900020E9F7AF01465C534065EC1B
:104C000073E0C7010E94372A40E050E060E070E0A6
:104C1000C7010E944B2F60930C0370930D0382E039
:104C2000860F873108F433C20E94E50660E070E029
:104C300089EF93E00E94A20C0230110549F066E072
:104C400074E080EC93E00E946806882309F454C065
:104C50000E94E50660E070E081EF93E00E94CA06E2
:104C60008091F20260E070E090E00E94EB0D0E9403
:104C7000E50660E070E080EE93E00E94CA06609175
:104C8000ED02062E000C770B880B990B40E050E0EC
:104C90000E94060760E070E084ED93E00E94CA067F
:104CA0008091370360E070E090E00E94EB0D0E947D
:104CB000E50660E070E083EC93E00E94CA06609134
:104CC000370370E080E090E040E050E00E9406078B
:104CD00060E070E081EC93E00E94CA068091EC02F3
:104CE00060E070E0082E000C990B0E94EB0D023082
:104CF000110511F001E010E06CEB73E080EC93E043
:104D00000E946806823091F5E0ECF3E0019000200B
:104D1000E9F7AF01465C534065EC73E0CE010196C4
:104D20000E94372A40E050E060E070E0CE0101963A
:104D30000E945C306093070370930803809309031B
:104D400090930A03623071058105910538F46093F0
:104D5000EB020E94720D01E010E00BC00E94E5061C
:104D600060E070E083EB93E00E94A20C023011053A
:104D700041F06CEB73E080EC93E00E9468068823BE
:104D8000A1F00E94E50660E070E087EA93E00E94EF
:104D9000CA068091EB0260E070E090E00E94EB0DAB
:104DA0000230110511F001E010E061EA73E080ECDF
:104DB00093E00E946806813029F480E00E94BA0BDB
:104DC00001E010E061EA73E080EC93E00E94680685
:104DD000823009F04FC0E0ECF3E001900020E9F7E9
:104DE000AF01475C534066EC73E088EE93E00E94AD
:104DF000372A40E050E060E070E088EE93E00E94E7
:104E00005C306093070370930803809309039093C9
:104E10000A038B019C0102501109210931090D3F40
:104E200011052105310538F00E94E50660E070E0CB
:104E300080E893E01CC06E3F71058105910521F467
:104E400080E00E94BA0B22C0862F0E941F0680932A
:104E50000B038F3F31F060E00E949A0980E090E000
:104E600079CB0E94E50660E070E080E793E00E9465
:104E7000A20C0CC0012B51F40E94E50660E070E02A
:104E800088E693E00E94A20C0E94800CA89589B14C
:104E900086FB992790F981E0892780932B03409026
:104EA0002703509028036090290370902A038823D9
:104EB00079F0452846284728B1F50E943E1C6093AA
:104EC0002703709328038093290390932A032BC010
:104ED000411451046104710431F10E943E1CDC0153
:104EE000CB0184199509A609B709893E9340A1050C
:104EF000B10520F481E00E9405060DC00E943E1C11
:104F0000DC01CB0184199509A609B709893B9B40AF
:104F1000A105B10540F010922703109228031092CA
:104F2000290310922A0380912C0381115DC0809186
:104F30002D0380FD59C08091C5059091C605DC0107
:104F4000ED91FC910280F381E02D0995882309F40D
:104F50004AC08CE3898FE8E3F3E0DF011D928A9574
:104F6000E9F7A8958091C5059091C605DC01ED9102
:104F7000FC910280F381E02D09958823A1F18091B5
:104F8000C5059091C605DC01ED91FC910480F58189
:104F9000E02DA50168E373E00995882321F19701CD
:104FA000A601B101C4010E941819182F8823D9F055
:104FB000898187FD18C09F898091C705981304C017
:104FC000688D8D890E94E4188D89988DE92FF0E015
:104FD000EB53FA4F2385821731F090933703838781
:104FE00011110E944F0EA89580912C0381112DC0A4
:104FF00080912D03853049F501EC14E0F8018081A2
:105000008823E9F085859685A785B0898F3F9F4FD6
:10501000AF4FBF4FA1F00E942D06D8011D964D90B5
:105020005D906D907C905097DC01CB0184199509BF
:10503000A609B70989359240A105B10588F50C5C30
:105040001F4FF5E0053C1F07C9F680912D038F5FC8
:105050000C942A1F0E9478050C94291F8093F20259
:105060000C94491E0E94E50660E070E085E294E041
:105070000E94CA060E94260780E090E00E94C708AE
:105080000230110509F449CD01E010E046CD6093EE
:10509000F2020E94720D0E94C10C01E010E0CFCD1F
:1050A000A89587EF96E00E949C0681EF96E00E940B
:1050B0009C068BE390E00E947A18D8016C9170E016
:1050C00080E090E040E050E00E9406078CE290E033
:1050D0000E947A18F801658576858785908940E079
:1050E00050E00E94A70880E090E00E94C7088FEF80
:1050F0009FEFDC01F80185879687A787B08B9FCF4C
:105100008830910511F40C94561F8D30910511F4DF
:105110000C94621F21E02E0F20932C03F0E0E0544A
:10512000FC4F8083E22FF0E0E054FC4F10820E949D
:105130007A18ACCE109236071092350710923807C5
:105140001092370710923A071092390786E391E0E0
:10515000909334078093330710922704109226040B
:1051600088EE93E0A0E0B0E08093280490932904B7
:10517000A0932A04B0932B048AE491E09093250431
:105180008093240485EC90E0909331048093300464
:1051900084EC90E0909333048093320480EC90E0B0
:1051A000909335048093340481EC90E0909337041D
:1051B0008093360482EC90E0909339048093380415
:1051C00086EC90E090933B0480933A0410923D0467
:1051D00010923E0410923F04109240041092D406A4
:1051E0001092D3068FEF8093D5068093DB068093D1
:1051F000DC061092DD061092DE061092E106109297
:10520000E0061092E3061092E2061092E506109274
:10521000E4061092E8061092E70623E337E03093A5
:10522000EA062093E9069AE09093EB062CE531E03C
:105230003093D2062093D10692E09093EC0694E04E
:105240009093EE068093ED068091D00621ED36E036
:105250003093C6052093C5058093C7051092C805F5
:105260001092C9051092CA051092CB051092CC0578
:1052700088EC90E09093CE058093CD0583E08093F9
:10528000CF0580E091E0E0EDF5E0DF019C011D92AB
:1052900021503040E1F7E1ECF4E080E090E04FEFA6
:1052A0002FEF3FEF10821282118213821482158237
:1052B000168217821086118612861486138615862A
:1052C00016861786108A118A128A138A148ADC01BC
:1052D000AF53BB4F55961C925597168A178A108E5E
:1052E000118E138E128E148E158E168E178E10A29E
:1052F00011A212A213A294961C92949716A215A220
:1053000097961C92979710A611A612A613A69C9684
:105310004C939C9736A725A710AA17A612AA11AAE4
:10532000D3961C92C496F496843051E0950709F008
:10533000B9CF0895991B79E004C0991F961708F01A
:10534000961B881F7A95C9F78095089597FB072EBD
:1053500016F4009407D077FD09D00E94BA2907FC03
:1053600005D03EF4909581959F4F08957095619575
:105370007F4F0895AA1BBB1B51E107C0AA1FBB1F8B
:10538000A617B70710F0A61BB70B881F991F5A95D1
:10539000A9F780959095BC01CD010895EE0FFF1FF0
:1053A0000590F491E02D09940E94DB296894B111D5
:1053B0000C94A13508950E94863588F09F5798F087
:1053C000B92F9927B751B0F0E1F0660F771F881F0A
:1053D000991F1AF0BA95C9F714C0B13091F00E9424
:1053E000A035B1E008950C94A035672F782F882759
:1053F000B85F39F0B93FCCF3869577956795B3954B
:10540000D9F73EF490958095709561957F4F8F4FB9
:105410009F4F089581E090E0F8940C946736FB016B
:10542000DC0102C001900D9241505040D8F7089520
:10543000FB01DC0101900D920020E1F70895FB01D2
:10544000DC014150504088F08D9181341CF08B3547
:105450000CF4805E619161341CF06B350CF4605E7D
:10546000861B611171F3990B0895881BFCCFFB011A
:10547000DC014150504048F001900D920020C9F7E6
:1054800001C01D9241505040E0F70895AEE0B0E0F9
:10549000ECE4FAE20C942F360D891E8986E08C83A9
:1054A0001A8309838FEF9FE79E838D83AE01475E4A
:1054B0005F4F6F89788DCE0101960E94D5322F8182
:1054C0003885F801E20FF31F10822E96E4E00C9469
:1054D0004B36AEE0B0E0EFE6FAE20C94313685E010
:1054E0008C838B899C899A838983AE01495E5F4F47
:1054F0006D897E89CE0101960E94022C2E96E2E0F3
:105500000C944D3620FD09C0FC0123FD05C022FF8F
:1055100002C07383628351834083089544FD10C0A9
:1055200046FD10C0DB01FC01AA0FBB1FEE1FFF1FD1
:105530001094D1F76A0F7B1F8E1F9F1F31E003C0AD
:1055400033E001C034E0660F771F881F991F315088
:10555000D1F7620F711D811D911D08950F931F9347
:10556000CF93DF938C01C8010E943B2DEC0197FD86
:1055700008C00E946E31892BB1F7B801CE010E949C
:10558000792DCE01DF91CF911F910F910895A1E068
:10559000B0E0EDECFAE20C9427368C01C62E7A01CD
:1055A00029830E943B2DAC01552729814B3251059F
:1055B00021F04D32510569F42068CA94C11002C02F
:1055C00080E076C0C80129830E943B2D298197FD88
:1055D000F7CF322F3D7FD32E322F307349F58033F2
:1055E00039F5BB24BA94BC0C09F44EC0C801298318
:1055F0000E943B2D298197FD47C0382F3F7D3835CC
:1056000069F48D2D8264D82ECA94CA94CC20E1F11D
:10561000C8010E943B2D97FF0BC036C026FF04C077
:105620002D2D2260D22E03C03D2D3261D32ECB2CE6
:10563000812C912C540120ED280F283080F0D4FECD
:1056400004C0B8010E94792D1CC02A3040F0D6FE5B
:10565000F8CF2F7D3FEE320F363098F727504D2D83
:10566000C501B4010E948E2A4B015C018D2D826020
:10567000D82ECA94CC2059F0C8010E943B2D97FF28
:10568000DACFD1FC04C09CCF812C912C5401D7FEE1
:1056900008C0B094A09490948094811C911CA11C8B
:1056A000B11C2D2DB501A401C7010E94822A81E001
:1056B0002196ECE00C944336A1E2B0E0E2E6FBE296
:1056C0000C9425365C017A01CE0101966C0180E2D2
:1056D000F60111928A95E9F7F501838040E050E0E8
:1056E000912C712C70E0A1E0B0E0F90183FC859170
:1056F00083FE81918F01982F9F01811103C080E06B
:1057000090E07CC08E3519F44115510549F1E72F21
:10571000F0E0E417F5073CF48D3559F18D3219F4BA
:10572000772001F103C0711001C0982E892F869552
:10573000869586958601080F111D892F87703D017A
:1057400001C0660C8A95EAF7F8018081862980837A
:10575000991559F0991510F49F5FE8CF9150E6CF55
:1057600071E004C07724739401C0712C4F5F5F4FC8
:10577000BCCF772019F08E8180628E83711103C0B7
:105780009924939416C0F6019E012F5D3F4F8081AE
:1057900080958193E217F307D1F7F2CFE114F1047A
:1057A00029F0F7018083C70101967C016150912C9B
:1057B000F9F0C50169A30E943B2D69A197FD16C0B0
:1057C000282F269526952695F601E20FF11D2081BA
:1057D00030E0AC014770552702C0359527954A95B2
:1057E000E2F720FDDBCFB5010E94792D911087CF24
:1057F000E114F10411F0F7011082C801A196EEE066
:105800000C9441364F925F927F928F929F92AF920B
:10581000BF92CF92DF92EF92FF920F931F93CF939D
:10582000DF931F92CDB7DEB76C012B015A01FC014B
:1058300017821682712CF601F380F201F3FC859138
:10584000F3FE8191382F2F01882309F4F3C090E0F3
:1058500039830E946E313981892B21F0C6010E9463
:10586000AE2AE9CF353241F4F201F3FC3591F3FE73
:1058700031912F01353269F4C60139830E943B2DE5
:10588000398197FDD5C03817B1F2B6010E94792D44
:10589000D1C03A3239F4F3FC3591F3FE31912F0146
:1058A00051E001C050E0420110E020ED230F2A300A
:1058B00090F45260612F70E080E090E040E2598304
:1058C0000E948E2A162FF401F3FC3591F3FE3191DC
:1058D0004F015981EACF052F232F240151FF03C027
:1058E000111102C0A7C01FEF383619F03C3659F02D
:1058F00011C0F401F3FC2591F3FE21912F0128360C
:1059000049F4052F08600460F201F3FC2591F3FED1
:1059100021912F01222309F48DC0622F70E08EE4C3
:1059200098E029830E94302D2981892B09F482C0B7
:1059300000FD07C0F501E080F180C50102965C0121
:1059400002C0E12CF12C2E3651F4F601468157812C
:1059500060E070E0202FC7010E94822A6CCF2336BE
:1059600091F401FF11E0C6010E943B2D97FD60C03C
:10597000E114F10429F0F7018083C70101967C014D
:10598000115089F751C02B3559F49201A701612FAD
:10599000C6010E945C2B2C01892B09F045C03FC039
:1059A000C60129830E94AE2A298197FD41C02F3666
:1059B00059F128F4243631F1293649F127C023372B
:1059C00069F02537F9F022C0E114F10429F0F7015C
:1059D0008082C70101967C01115071F0C6010E94BE
:1059E0003B2D4C0197FD08C00E946E31892B61F35D
:1059F000B601C4010E94792DE114F104A9F0F70168
:105A0000108212C0006203C0006101C00064202F38
:105A1000A701612FC6010E94C72A811105C0F601A6
:105A20008381807329F406C000FD05CF739403CFF2
:105A3000772019F0872D90E002C08FEF9FEF0F9035
:105A4000DF91CF911F910F91FF90EF90DF90CF905A
:105A5000BF90AF909F908F907F905F904F900895F0
:105A6000FC010590061621F00020D9F7C001089529
:105A70003197CF010895CF93DF93EC012B8120FF65
:105A800033C026FF0AC02F7B2B838E819F81019616
:105A90009F838E838A8190E029C022FF0FC0E88116
:105AA000F9818081082E000C990B009719F420626F
:105AB0002B831AC03196F983E8830EC0EA85FB85F3
:105AC000099597FF09C02B81019611F080E201C072
:105AD00080E1822B8B8308C02E813F812F5F3F4F57
